:1000000003C1000032C1000030C100002EC1000059
:100010002CC100002AC1000028C1000026C1000038
:1000200024C1000022C1000020C100001EC1000048
:100030001CC100001AC1000018C1000016C1000058
:1000400014C1000012C1000010C100000EC1000068
:100050000CC100000AC1000008C100000C94C80EC9
:1000600004C100000C94920E0C94680EFEC00000B7
:10007000FCC00000FAC00000F8C00000F6C000009C
:10008000F4C00000F2C00000F0C00000EEC00000AC
:10009000ECC00000EAC00000E8C00000E6C00000BC
:1000A000E4C00000E2C00000E0C00000DEC00000CC
:1000B000DCC00000DAC00000D8C00000D6C00000DC
:1000C000D4C00000D2C00000D0C00000CEC00000EC
:1000D000CCC00000CAC00000C8C00000C6C00000FC
:1000E000C4C0000000002100240027002A002D00C9
:1000F0003000330001010000040107010A01000083
:100100002200250028002B002E00310034000201BF
:100110000000050108010B0100000A0B02090C0D8B
:100120000E080703040100000000000000000000AA
:1001300000000000000000000000000000000000BF
:10014000000000001211100000000000000000007C
:10015000000000000000000000000000000000009F
:1001600020002300260029002C002F00320000016F
:10017000000003010601090105050505070508083A
:100180000808020202020A0A080804040404010121
:100190000101010101010303030303030303040736
:1001A00007070C0C0C0C0C0C0C0C020202020606CD
:1001B0000606060606060B0B0B0B0B0B0B0B0102C0
:1001C0001020200808102040102040800201020169
:1001D0000804020101020408102040808040201021
:1001E000080402018004020180402010080402017A
:1001F00008040201010204081020408001020408E2
:1002000010204080120F3E1711241FBECFEFD1E205
:10021000DEBFCDBF00E00CBF16E0A0E0B2E0E2E739
:10022000F8E300E00BBF02C007900D92AC3CB107B1
:10023000D9F728E0ACECB6E001C01D92A233B207BA
:10024000E1F711E0C3E0D1E000E006C02197010929
:10025000802FFE010E94F819C230D10780E0080704
:10026000A9F70E94960F0C94281CCACECF92DF9259
:10027000EF92FF92CF93DF93B091B607A0E0811188
:10028000AB2F8091B70790E0880F991FAC01425ABD
:100290005E4FC090BC07D090BD07E090BE07F090C5
:1002A000BF0730E020E0FA01C591D491E881B9019F
:1002B00090E080E0EB23EA130AC02F5F3F4F6C15FC
:1002C0007D058E059F0578F36FEF7FEFCB01DF9102
:1002D000CF91FF90EF90DF90CF900895FC012481A3
:1002E00035816217730720F480819181009729F48A
:1002F00010920B078BE097E00895860F971F0895E3
:100300000895AF92BF92CF92DF92EF92FF920F9338
:100310001F93CF93DF936C017B018B01040F151F9B
:10032000EB015E01AE18BF08C017D10759F0699103
:10033000D601ED91FC910190F081E02DC601199557
:10034000892B79F7C501DF91CF911F910F91FF9014
:10035000EF90DF90CF90BF90AF900895FC01538D48
:10036000448D252F30E0842F90E0821B930B54178F
:1003700010F0CF96089501970895FC01918D828D1C
:10038000981761F0A28DAE0FBF2FB11D5D968C91B5
:10039000928D9F5F9F73928F90E008958FEF9FEFF4
:1003A0000895FC01918D828D981731F0828DE80FB0
:1003B000F11D858D90E008958FEF9FEF0895FC016A
:1003C000918D228D892F90E0805C9F4F821B910937
:1003D0008F73992708958CE097E0F1DF21E0892B56
:1003E00009F420E0822F0895FC01A48DA80FB92FF5
:1003F000B11DA35ABF4F2C91848D90E001968F734D
:100400009927848FA689B7892C93A089B1898C916B
:10041000837080648C93938D848D981306C00288BA
:10042000F389E02D80818F7D80830895EF92FF9284
:100430000F931F93CF93DF93EC0181E0888F9B8D07
:100440008C8D98131AC0E889F989808185FF15C0C1
:100450009FB7F894EE89FF896083E889F9898081E4
:100460008370806480839FBF81E090E0DF91CF91B3
:100470001F910F91FF90EF900895F62E0B8D10E0D5
:100480000F5F1F4F0F731127E02E8C8D8E110BC045
:100490000FB607FCFACFE889F989808185FFF5CF8F
:1004A000CE01A2DFF2CFEB8DEC0FFD2FF11DE35A51
:1004B000FF4FF0829FB7F8940B8FEA89FB89808108
:1004C0008062D0CF682F8CE097E0B0CFCF93DF93DE
:1004D000EC01888D8823B1F0AA89BB89E889F98964
:1004E0008C9185FD03C0808186FD0CC00FB607FC92
:1004F000F7CF8C9185FFF2CF808185FFEDCFCE01C4
:1005000073DFEACFDF91CF91089580E090E0892BEF
:1005100021F061DF81110E94000080E090E0892BD2
:1005200049F080E090E0892B29F00E9400008111C1
:100530000E94000080E090E0892B49F080E090E08C
:10054000892B29F00E94000081110E94000080E0A8
:1005500090E0892B49F080E090E0892B29F00E94FF
:10056000000081110C94000008958150823108F040
:100570005AC0E82FF0E08827EF53FD4F8F4F0C94BF
:10058000F819E102E502D302D902DD021303E80201
:10059000EE02F202F802FC02000306030A03130350
:1005A0000E0314031803809180008F7780938000DE
:1005B0000895809180008F7DF9CF80918000877FA2
:1005C000F5CF84B58F7784BD089584B58F7DFBCF3B
:1005D0008091B0008F778093B00008958091B00033
:1005E0008F7DF9CF809190008F7780939000089550
:1005F000809190008F7DF9CF80919000877FF5CF1B
:100600008091A0008F778093A00008958091A00032
:100610008F7DF9CF8091A000877FF5CF8091200159
:100620008F77809320010895809120018F7DF9CFED
:1006300080912001877FF5CFCF93DF93282F30E083
:10064000F901E85EFE4F8491F901E254FE4FD49126
:10065000F901E858FE4FC491CC2399F0811185DF50
:10066000EC2FF0E0EE0FFF1FE25AFE4FA591B49180
:10067000EC91ED2381E090E009F480E0DF91CF91EF
:10068000089580E090E0FACF1F93CF93DF93282F57
:1006900030E0F901E85EFE4F8491F901E254FE4F2B
:1006A000D491F901E858FE4FC491CC23A1F0162F44
:1006B00081115BDFEC2FF0E0EE0FFF1FE250FF4FE8
:1006C000A591B4918FB7F894EC91111108C0D09511
:1006D000DE23DC938FBFDF91CF911F910895DE2B36
:1006E000F8CFCF93DF9390E0FC01E254FE4F2491CA
:1006F00088589E4FFC0184918823C9F090E0880FB0
:10070000991FFC01EC51FF4FA591B491FC01E250FF
:10071000FF4FC591D49161110DC09FB7F8948C9192
:10072000209582238C938881282328839FBFDF9183
:10073000CF910895623051F49FB7F8943C91822F85
:10074000809583238C93E8812E2BEFCF8FB7F8947D
:10075000EC912E2B2C938FBFEACF863308F0865373
:1007600020917B00982F9870277F922B90937B008D
:100770008770806480937C0080917A00806480938D
:100780007A0080917A0086FDFCCF8091780090916C
:10079000790008953FB7F8948091D2069091D306DE
:1007A000A091D406B091D50626B5A89B05C02F3FD1
:1007B00019F00196A11DB11D3FBFBA2FA92F982F87
:1007C0008827BC01CD01620F711D811D911D42E082
:1007D000660F771F881F991F4A95D1F708958F924A
:1007E0009F92AF92BF92CF92DF92EF92FF924B0116
:1007F0005C01D0DF6B017C01CDDF6C197D098E09B6
:100800009F09683E734081059105B0F321E0821A8B
:100810009108A108B10888EEC80E83E0D81EE11C3B
:10082000F11C81149104A104B10431F7FF90EF9001
:10083000DF90CF90BF90AF909F908F9008952FB78B
:10084000F8946091CE067091CF068091D006909179
:10085000D1062FBF0895CF92DF92EF92FF920F93B0
:100860001F93CF93DF93CDB7DEB7C054D1400FB6FF
:10087000F894DEBF0FBECDBFE2DF0091B807109144
:10088000B9072091BA073091BB076B017C01C01AF0
:10089000D10AE20AF30A97018601003D17402105BB
:1008A000310590F48091C007C05CDE4F0FB6F8941C
:1008B000DEBF0FBECDBFDF91CF911F910F91FF9093
:1008C000EF90DF90CF9008956093B8077093B907C9
:1008D0008093BA079093BB071092B3071092B207A8
:1008E0001092B1071092B0071092AF0762E08091AA
:1008F000B407F7DE61E070E080E090E070DF61E077
:100900008091B407EEDE60E08091B407BDDE809197
:10091000B5078551823010F58BE291E10197F1F72F
:1009200062E08091B407DDDE8091C10790E0823003
:10093000910538F0880F991F880F991F0597019727
:10094000F1F7F89480E092DC6F3F7F4F8F4F9F4F1D
:1009500059F41092C007789480E0A6CF64E170E06B
:1009600080E090E03CDFDCCF81E080DC6F3F7F4FB8
:100970008F4F9F4F71F38E010F5F1F4F6E012FEB53
:10098000C21A2EEFD20A780180E070DCF701608392
:1009900071838283938381E069DCF70164837583CB
:1009A00086839783F8E0EF0EF11CEC14FD0461F7E9
:1009B000789430E020E0F801C080D180E280F380BC
:1009C0004481558166817781FFEFCF16DF06EF0600
:1009D000FF0631F04F3F8FEF58076807780719F48B
:1009E0001092C007B9CFF90183E0F595E7958A9594
:1009F000E1F7E155F84F8081880FC416D506E60669
:100A0000F70610F180832F5F3F4F085F1F4F28329A
:100A1000310589F64091B3072091AF078091B00767
:100A2000280F3327331F8091B107280F311D809184
:100A3000B207820F932F911D99274817190681F647
:100A400081E08093C00730CF8160DCCF8091CC06FD
:100A5000882349F082E390E09093DF068093DE06DE
:100A600081E0809301070895FC0101900020E9F7DF
:100A70003197AF01481B590BBC018CE097E041CC8A
:100A80008F929F92AF92BF920F931F93CF93DF935A
:100A9000CDB7DEB7A1970FB6F894DEBF0FBECDBFBE
:100AA00019A2423008F44AE08E010F5D1F4F842ED8
:100AB000912CB12CA12CA50194010E942D19E62F97
:100AC000B901CA01EA30ECF4E05DD801EE938D0182
:100AD000232B242B252B79F790E080E0109711F041
:100AE000CD01C2DFA1960FB6F894DEBF0FBECDBF19
:100AF000DF91CF911F910F91BF90AF909F908F90FA
:100B00000895E95CE2CFCF93DF93AEDFEC018AEA90
:100B100092E0AADF8C0F9D1FDF91CF910895809105
:100B20000407811103C08DEA92E0EDCF0895CF93C1
:100B3000DF93FC0144815581608171818CE097E0F5
:100B4000E0DBEC018AEA92E08FDF8C0F9D1FDF91E2
:100B5000CF910895DF92EF92FF920F931F93CF935F
:100B6000DF93D82EE92E8B01F42E89E6481731F059
:100B70009FE6491719F089EB92E0C5DFCD2DDE2DF8
:100B8000000F111F0C0F1D1F8881229661E099E64E
:100B9000F91201C060E0A5DDC017D107A9F7DF9108
:100BA000CF911F910F91FF90EF90DF9008956BE12F
:100BB0008CE097E03BDC82EE92E056CF6BE18CE07C
:100BC00097E034DC85EE92E04FCFFC01808191818B
:100BD000009711F00C945F1760E070E0CB0108956E
:100BE000FC0124813581232B39F421E0FB01808134
:100BF000882349F020E007C0808191810E94181C61
:100C000021E0892BB9F7822F08950F931F93CF937B
:100C1000DF938C01EB01FC01808191810097E1F071
:100C20006881798161157105A9F0428153812C8118
:100C30003D814217530770F00E94211C8C819D81D9
:100C4000F801958384831D821C82DF91CF911F91CF
:100C50000F9108950E94A21A88819981F8019183C9
:100C600080838A819B81938382838C819D819583FC
:100C70008483198218821B821A82E5CFFC011182BB
:100C800010821382128215821482BFCFCF93DF931A
:100C9000EC0188819981009711F00E94A21A1982B3
:100CA00018821D821C821B821A82DF91CF910895C7
:100CB000FC0180819181009711F00C94A21A089593
:100CC0000F931F93CF93DF93EC0188819981009755
:100CD00059F02A813B812617370730F081E0DF91F8
:100CE000CF911F910F9108958B016F5F7F4F0E94ED
:100CF0002B1B009759F0998388831B830A832C81CF
:100D00003D81232B59F7FC011082E8CF80E0E7CF2B
:100D1000EF92FF920F931F93CF93DF9361157105AD
:100D200041F480E0DF91CF911F910F91FF90EF9000
:100D3000089541155105A9F07B01EC010C811D813D
:100D4000040F151FB801BCDF882359F328813981AE
:100D50008C819D81B701820F931F0E94211C1D83EE
:100D60000C8381E0DFCFCF93DF93EC01FB01019097
:100D70000020E9F73197AF01461B570BC9DF8111FE
:100D800002C0CE0183DFCE01DF91CF910895CF93D2
:100D9000DF93EC01FB014481558160817181B8DFF3
:100DA000811102C0CE0172DFCE01DF91CF91089593
:100DB000CF93DF931F921F92CDB7DEB769831A825C
:100DC00041E050E0BE016F5F7F4FA2DF0F900F90B8
:100DD000DF91CF910895FB0101900020E9F7319751
:100DE000AF01461B570B94CFFB01448155816081B5
:100DF00071818ECFEF92FF920F931F93CF93DF936A
:100E0000EC017B018A01BA015BDF81110AC0CE01CE
:100E10003DDFCE01DF91CF911F910F91FF90EF90B9
:100E200008951D830C83B701888199810E94211C3C
:100E3000F0CFFB0101900020E9F73197AF01461B8D
:100E4000570BD8CF0F931F93CF93DF93CDB7DEB758
:100E500062970FB6F894DEBF0FBECDBF8C01CB01F9
:100E6000F8011182108213821282158214824AE0E4
:100E7000BE016F5F7F4F0E948517BE016F5F7F4F7E
:100E8000C801D7DF62960FB6F894DEBF0FBECDBFA4
:100E9000DF91CF911F910F9108950F931F93CF93DF
:100EA000DF93CDB7DEB761970FB6F894DEBF0FBE04
:100EB000CDBF8C01CB01F801118210821382128206
:100EC000158214824AE0BE016F5F7F4F0E94D317E4
:100ED000BE016F5F7F4FC801ACDF61960FB6F8941B
:100EE000DEBF0FBECDBFDF91CF911F910F9108954F
:100EF0000F931F93CF93DF93CDB7DEB7A2970FB6B3
:100F0000F894DEBF0FBECDBF8C01CB01BA01F80152
:100F10001182108213821282158214822AE0AE019D
:100F20004F5F5F4F0E948F17BE016F5F7F4FC801F9
:100F300080DFA2960FB6F894DEBF0FBECDBFDF9163
:100F4000CF911F910F910895CF93DF93EC01FB0197
:100F50008617970741F0608171816115710539F03D
:100F60004481558147DFCE01DF91CF9108958EDE18
:100F7000FACFFC0111821082138212821582148230
:100F8000E3CFFC0111821082138212821582148237
:100F90006115710549F0FB0101900020E9F73197D7
:100FA000AF01461B570B26CF08959F92AF92BF9279
:100FB000CF92DF92EF92FF920F931F93CF93DF9325
:100FC00000D000D0CDB7DEB77C018B01942E590143
:100FD000FB018481958182179307B8F56CEA72E072
:100FE000CE010196CEDFD12CC12CF80184819581F0
:100FF0009501281B390BC216D30640F4692DCE018A
:101000000196D6DE3FEFC31AD30AEFCFB801CE0167
:101010000196EADEBE016F5F7F4FC7012FDECE0172
:10102000019646DEC70126960FB6F894DEBF0FBEC6
:10103000CDBFDF91CF911F910F91FF90EF90DF9087
:10104000CF90BF90AF909F900895C70117DEEACF71
:10105000CF92DF92EF92FF920F931F93CF93DF9384
:1010600000D000D0CDB7DEB78C018091040769EEC7
:1010700072E0882311F06AEE72E0C80182DF86E038
:10108000C82E82E0D82EF12CE12CF6018081F2E00E
:10109000CF0ED11CD1DABC01CE010196D3DEBE0148
:1010A0006F5F7F4FC801A0DECE01019601DE63EFC6
:1010B00072E089E0E816F10411F06CEA72E0C80110
:1010C0008ADE9FEFE91AF90AEAE0EE16F104E9F682
:1010D00080910407811104C063EF72E0C8017BDED8
:1010E000C80126960FB6F894DEBF0FBECDBFDF91C4
:1010F000CF911F910F91FF90EF90DF90CF900895C7
:101100000F931F93CF93DF93FC01248135816217E6
:101110007307E1F4EC016CEA72E062DD811116C044
:1011200010E000E02C813D810217130780F4B80124
:10113000CE01D4D8FC018081082E000C990BC097F9
:101140000A9720F40F5F1F4F81E0ECCF80E0DF9122
:10115000CF911F910F910895CF92DF92EF92FF925E
:101160000F931F93CF93DF93CDB7DEB762970FB680
:10117000F894DEBF0FBECDBF6C017B018A016CEA23
:1011800072E0CE010196FDDE61EF75E0C70128DD5A
:101190008823A1F0C80119DD660F771F60587D4FC5
:1011A000FB01808149DABC01CE0107964BDEBE010E
:1011B000695F7F4FCE01019628DD32C06CEE72E090
:1011C000C7010EDD882309F45FC0C801FEDC660F8D
:1011D000771F605A7D4FFB018081BFDA2FEF3FE020
:1011E000DC010E94001A2FEF33E040E050E00E9443
:1011F0001119BA01A901CE0107967ADE24E030E088
:1012000040E3BE01695F7F4FCE010D96CEDEBE0189
:10121000635F7F4FCE010196F8DCCE010D9648DD6D
:10122000CE01079645DD69EE72E0CE010796A9DE94
:10123000B701CE010796ABDD6AEB76E094DDB8012D
:10124000A6DD6AEB76E08FDDBE016F5F7F4F9FDD2D
:1012500062EF72E088DDBC01C6018BDECE0107962D
:1012600027DDCE01019624DDC60162960FB6F89403
:10127000DEBF0FBECDBFDF91CF911F910F91FF90C9
:10128000EF90DF90CF9008956FEE72E0C701A8DC79
:10129000882309F4C8CFC80198DC660F771F6A5FFE
:1012A0007D4F7ECFAF92BF92CF92DF92EF92FF92AF
:1012B0000F931F93CF93DF93CDB7DEB72C970FB665
:1012C000F894DEBF0FBECDBF5C018B01D42E7DDC58
:1012D000660F771F60507E4FFB01E080F180DD20BC
:1012E00009F423C12FEF30E0D8010E94001A20E159
:1012F00037E240E050E00E941119122F032FC22E56
:10130000D32E61E08E2DEDD9C114D10421F460E01B
:101310008E2DBAD92CC0FFEFCF16D10411F461E0A5
:10132000F7CFF701FF27E85EFE4FE491E150E2318D
:1013300008F0F5C0F0E08827EF55F64F8F4F0C947A
:10134000F819B309E509EA09F609020A8F0A0E0A33
:10135000160A1E0A2A0A360A420A530A5F0A8F0A26
:101360006B0A770A830A84B5806884BD17BD8091B3
:101370000407811119C065EF72E0CE01019601DE0C
:10138000B501CE01019603DD6AEF72E0ECDCBC0131
:10139000CE010796EEDDCE010796C9DBCE0107969A
:1013A00087DCCE01019684DC2C960FB6F894DEBF64
:1013B0000FBECDBFDF91CF911F910F91FF90EF90A6
:1013C000DF90CF90BF90AF90089584B5806284BDC8
:1013D00018BDCDCF80918000806880938000812FE0
:1013E000902F9093890080938800C1CF80918000D6
:1013F000806280938000812F902F90938B00809348
:101400008A00B5CF80918000886080938000812F12
:10141000902F90938D0080938C00A9CF8091B00085
:1014200080688093B0001093B300A1CF8091B0008A
:1014300080628093B0001093B40099CF80919000A7
:10144000806880939000812F902F909399008093D3
:1014500098008DCF80919000806280939000812FC2
:10146000902F90939B0080939A0081CF8091900061
:10147000886080939000812F902F90939D0080939F
:101480009C0075CF8091A00080688093A00080911F
:10149000A0008F7B8093A000812F902F9093A900B4
:1014A0008093A80064CF8091A00080628093A00008
:1014B000812F902F9093AB008093AA0058CF8091FA
:1014C000A00088608093A000812F902F9093AD00A2
:1014D0008093AC004CCF80912001806880932001E4
:1014E000812F902F909329018093280140CF8091E4
:1014F0002001806280932001812F902F90932B01F7
:1015000080932A0134CF809120018860809320014C
:10151000812F902F90932D0180932C0128CF80E86C
:10152000C816D1040CF0FBCEF2CE61E08E2DD9D8D6
:1015300060E08E2DA9D880910407811135CF65EF29
:1015400072E0CE0101961DDDB501CE0101961FDCD2
:101550006EEF72E01BCFCF93DF93CDB7DEB7689706
:101560000FB6F894DEBF0FBECDBF83E093E0CBDAB9
:1015700088E393E0C8DA84E793E0C5DA6CE270E0D0
:10158000CE0107968ADC22E030E040E3BE01695FCD
:101590007F4FCE010D9609DD62EB73E0CE0101961F
:1015A000F0DCBE01635F7F4FCE010196F0DB61E9A5
:1015B00075E0D9DBBC01CE014396DBDCCE0143965E
:1015C000B6DACE01439674DBCE01019671DBCE0113
:1015D0000D966EDBCE0107966BDB8BEE93E093DA14
:1015E00086E194E090DA62E070E0CE01079655DC87
:1015F00022E030E040E3BE01695F7F4FCE010D96EF
:10160000D4DC66E674E0CE010196BBDCBE01635F0C
:101610007F4FCE010196BBDB61E975E0A4DBBC0125
:10162000CE014396A6DCCE01439681DACE014396E5
:101630003FDBCE0101963CDBCE010D9639DBCE01BE
:10164000079636DB8BE994E05EDA8CEC94E05BDAAB
:101650008AE095E058DA83E495E055DA83E995E08D
:1016600052DA88E393E04FDA68960FB6F894DEBF5B
:101670000FBECDBFDF91CF9108958F929F92AF9211
:10168000BF92CF92DF92EF92FF920F931F93CF936F
:10169000DF93CDB7DEB7E6970FB6F894DEBF0FBE87
:1016A000CDBF8C01FC0162817381CE01499669DC5A
:1016B000F80164817581CE014F9663DCF801668183
:1016C0007781CE0185965DDCF80160857185CE015C
:1016D0008B9657DCF80162857385CE01C19651DC8B
:1016E0008D8D9E8D0297079710F019DA72C06FEEFC
:1016F00072E0CE01499674DA882309F4E8C0BE018D
:10170000615E7F4FCE01019634DC62E070E0CE0175
:101710000196F6DC11E0882351F0CE014F9655DAA0
:1017200011E06D327105810591050CF410E0CE01D8
:101730000196BEDA1111D9CFBE016B5D7F4FCE018C
:10174000019617DC61E070E0CE010196D9DC182F1C
:10175000CE010196ADDA11112DC070E060E0CE012E
:1017600085960E946E01FC0180818A3009F0BDCF10
:101770006DD9BE01615E7F4FCE010796FADBBE01D7
:10178000675E7F4FCE010196F4DBAE01495F5F4F8C
:10179000BE016F5F7F4FCE010D96DEDCCE010D9650
:1017A000C6D9CE010D9684DACE01019681DACE013A
:1017B000079603C24BD9CE01859607DA61157105EC
:1017C0008105910541F1613071058105910509F4AB
:1017D00057C0CE01C1966CDACE018B9669DACE0184
:1017E000859666DACE014F9663DACE01499660DAC5
:1017F000E6960FB6F894DEBF0FBECDBFDF91CF9156
:101800001F910F91FF90EF90DF90CF90BF90AF901E
:101810009F908F900895BE01615E7F4FCE0101962B
:10182000A8DBCE010196D1D9660F771FFB01EA5FD5
:10183000FD4F60E080810E944403CE01019638DABA
:10184000809104078111C5CF6BED75E0CE01019643
:1018500098DBBE01615E7F4FCE01019698DA6FED95
:1018600075E081DABC01CE01079683DBCE010796D5
:101870005ED9CE0107961CDACE01019619DAA9CFFE
:10188000BE01615E7F4FCE01019673DBCE010196F2
:101890009CD9660F771FFB01EA5FFD4F61E08081F5
:1018A0000E944403CE01019603DA8091040781115E
:1018B00090CF6BED75E0CE01019663DBBE01615EFA
:1018C0007F4FCE01019663DA67EE75E0CACF6FEE07
:1018D00075E0CE01499684D9882341F1BE01615E4D
:1018E0007F4FCE01019645DB61E070E0CE010196AD
:1018F00007DC182FCE010196DBD9112309F4F5CEB0
:10190000A5D8CE014F9661D9611571058105910564
:1019100051F0613071058105910509F05ACF81E0E0
:101920008093040756CF1092040753CF64EF75E0FD
:10193000CE01499655D9882309F450C0BE01615E95
:101940007F4FCE01079615DB62E070E0CE0107966F
:10195000D7DB182F882309F43FC089A59AA50697DD
:1019600080F4BE01655D7F4FCE01019602DB61E030
:1019700070E0CE010196C4DB11E01827CE0101967C
:1019800097D9CE01079694D91111AFCE5FD8BE0179
:10199000615E7F4FCE010196ECDACE01859615D9B6
:1019A0006B01CE018B9611D94B015C01BE016F5FBB
:1019B0007F4FCE010796DDDA41E089288A288B28FF
:1019C00009F440E0B601CE0107966CDCCE01079623
:1019D0006FD9CE010196F1C011E0D3CF68EF75E069
:1019E000CE014996FDD8882329F1BE01615E7F4F63
:1019F000CE010196BEDA61E070E0CE01019680DB97
:101A0000182FCE01019654D9112309F46ECE1ED899
:101A1000CE014F96DAD8660F771F66577D4FFB01D0
:101A2000808191819093DF068093DE0681E0809330
:101A30000107CFCE6CEF75E0CE014996D1D888234F
:101A4000C1F061E076E0CE014F96CAD8882331F02C
:101A500081E08093CC060E942605BBCE67ED75E041
:101A6000CE014F96BDD8882309F4B3CE1092CC0690
:101A7000B0CE6DEA73E0CE014996B2D8882341F02A
:101A8000809104078111A5CE0E94260564DDA1CEB8
:101A900068EC74E0CE014996A3D8882349F0809180
:101AA0000407811196CE0E94260588D880D891CE51
:101AB00064E075E0CE01499693D8882309F445C0C7
:101AC0000E9426051092040710E000E0B801CE0144
:101AD0000796B8D963E276E0CE010D9652DABE01E0
:101AE000695F7F4FCE010D9652D9BC01CE010196A0
:101AF00040DA40E070E060E0CE010196D3DBCE0139
:101B00000196D6D8CE010D96D3D8CE010796D0D85F
:101B10000F5F1F4F03301105C9F606E012E080E6A3
:101B2000E82E82E0F82EE016F10641F0F8018081FF
:101B30000E5F1F4F60E00E944403F5CF80910407C1
:101B4000882309F446CE3AD844CE6FE375E0CE013F
:101B5000499646D8882399F10E9426056CE178E0E1
:101B6000CE010D9606DA68E278E0CE01079601DA3A
:101B700064E076E0CE01019604DABE01695F7F4F32
:101B8000CE01019604D96AE076E0EDD8BE01635F2C
:101B90007F4FFDD8BC01CE014396EBD9CE014396D1
:101BA0000E949705CE01439683D8CE01019680D836
:101BB000CE0107967DD8CE010D967AD80ACE60E187
:101BC00076E0CE0149960CD8882351F00E94260574
:101BD000CE0101963DDACE0101960E949705F9CE1D
:101BE00061EF75E0CE0149960E94F0058111C0CDEC
:101BF0006CEE72E0CE0149960E94F0058111B8CDDD
:101C000069E176E0CE0149960E94F005882309F447
:101C10006CCDBE01615E7F4FCE010196AAD961E015
:101C200070E0CE0101966CDA182FCE01019640D8F3
:101C3000112309F45ACD0E942605CE014F960E9429
:101C4000E505611571058105910509F43EC0613016
:101C500071058105910509F0BCCD89A59AA5069766
:101C600008F043CD8FA598A9039708F03ECDBE019B
:101C70006F5C7F4FCE0101967CD962E070E0CE01AF
:101C800001963EDA182FCE01019612D8112309F4DD
:101C90002CCDCE0185960E94E5056093F0067093E9
:101CA000F1068093F2069093F306BE01655D7F4FC7
:101CB00086E198E049D9BE016F5C7F4F80E198E0F2
:101CC00043D981E08093FC0684CD1092FC0681CD3F
:101CD0001F920F920FB60F9211240BB60F922F93F3
:101CE0003F934F935F936F937F938F939F93AF93A4
:101CF000BF93EF93FF938CE097E00E94F401FF9174
:101D0000EF91BF91AF919F918F917F916F915F9173
:101D10004F913F912F910F900BBE0F900FBE0F90E0
:101D20001F9018951F920F920FB60F9211240BB6A9
:101D30000F922F938F939F93EF93FF93E0911C0744
:101D4000F0911D078081E0912207F091230782FD29
:101D50001DC09081809125078F5F8F73209126078A
:101D6000821741F0E0912507F0E0E45FF84F958F8E
:101D700080932507FF91EF919F918F912F910F9065
:101D80000BBE0F900FBE0F901F9018958081F2CF61
:101D90001F920F920FB60F9211242F933F938F93A0
:101DA0009F93AF93BF938091CE069091CF06A09161
:101DB000D006B091D1063091CD0623E0230F2D3708
:101DC00058F50196A11DB11D2093CD068093CE0636
:101DD0009093CF06A093D006B093D1068091D206FF
:101DE0009091D306A091D406B091D5060196A11D7D
:101DF000B11D8093D2069093D306A093D406B093DE
:101E0000D506BF91AF919F918F913F912F910F90E8
:101E10000FBE0F901F90189526E8230F0296A11D64
:101E2000B11DD2CFECE0F7E01382128288EE93E08E
:101E3000A0E0B0E084839583A683B7838CE992E029
:101E40009183808385EC90E09587848784EC90E093
:101E50009787868780EC90E0918B808B81EC90E077
:101E6000938B828B82EC90E0958B848B86EC90E058
:101E7000978B868B118E128E138E148E6FE176E007
:101E800088E298E07ED865E276E082E298E079D850
:101E90006AE276E08CE198E074D86CEA72E086E160
:101EA00098E06FD86CEA72E080E198E06AD86CEA5A
:101EB00072E08AE098E065D8E2ECF7E010828EE507
:101EC0008093030884E28093040880E280930508ED
:101ED000109209081092080810920708109206083C
:101EE0001182AFEAB7E08CE015968C9315978BE0E2
:101EF00016968C931697EAECF1E0E4911796EC9322
:101F00001797E4E8F1E0E4911896EC93189740E80D
:101F10005EE360E070E01D964D935D936D937C935E
:101F200050976CEA72E089EA97E02BC8CF93DF9371
:101F3000CDB7DEB76E970FB6F894DEBF0FBECDBF3C
:101F4000789484B5826084BD84B5816084BD85B594
:101F5000826085BD85B5816085BD80916E008160A0
:101F600080936E0010928100809181008260809346
:101F70008100809181008160809381008091800048
:101F80008160809380008091B10084608093B10073
:101F90008091B00081608093B00080919100826058
:101FA0008093910080919100816080939100809155
:101FB00090008160809390008091A1008260809366
:101FC000A1008091A10081608093A1008091A00078
:101FD00081608093A0008091210182608093210123
:101FE0008091210181608093210180912001816095
:101FF0008093200180917A00846080937A008091A0
:102000007A00826080937A0080917A008160809368
:102010007A0080917A00806880937A001092C100E3
:1020200061E08DE00E94710349E662E070E080E8C3
:1020300092E00E94AA0549E660E170E080E692E045
:102040000E94AA054FE66DE270E086E092E00E94F1
:10205000AA054FE663E070E080E092E00E94AA05E6
:10206000E0911C07F0911D0782E08083E091180742
:10207000F09119071082E0911A07F0911B0780E197
:10208000808310922407E0912007F091210786E0D9
:102090008083E0911E07F0911F078081806180831B
:1020A000E0911E07F0911F07808188608083E09196
:1020B0001E07F0911F07808180688083E0911E07D2
:1020C000F0911F0780818F7D80838CE097E00E94D4
:1020D000DF0118161906CCF362E08091B4070E9464
:1020E00071030E941F04605D77408109910960932C
:1020F000B8077093B9078093BA079093BB0787E33B
:102100008093C10788E493E00E94830563E376E04F
:10211000CE0107960E94C10762E278E0CE010796E1
:102120000E94C70661E476E00E94B306BC01CE01BE
:1021300001960E94B907CE0101960E949705CE0133
:1021400001960E945806CE0107960E9458066CE53B
:1021500076E0CE0107960E94C10762E278E0CE01E8
:1021600007960E94C7066DE976E00E94B30668E60E
:1021700076E00E94B3066CE178E00E94C7066CE648
:1021800076E00E94B30668E278E00E94C7066AE93A
:1021900076E00E94B306BC01CE0101960E94B90709
:1021A000CE0101960E949705CE0101960E94580625
:1021B000CE0107960E94580684E796E00E948305A8
:1021C00088E493E00E948305C6D960910608709167
:1021D00007086F5F7F4F7093070860930608660FCC
:1021E000771F660F771F80910808909109080E9459
:1021F0002B1B9093090880930808E0910608F09142
:102200000708E150F04CEE0FFF1FEE0FFF1FE80F25
:10221000F91F80EA96E0918380838DE39BE09383AE
:1022200082831092060710920507109203071092FE
:102230000207109200071092FF061092FE061092FD
:10224000FD061092FB061092FA06B3EC2B2EB7E0B7
:102250003B2E0E94CA036093070770930807809380
:10226000090790930A078091050790910607009748
:1022700009F466C08A33924009F472C010920607CE
:102280001092050780910407882379F08091020756
:1022900090910307009709F4C0C18F36924009F46A
:1022A000CCC1109203071092020780910107882386
:1022B000B1F08091FF06909100078538E2E09E071B
:1022C00009F428C408F0B7C3009709F4E1C38238C1
:1022D000924009F4EDC3109200071092FF0680911E
:1022E000FD069091FE06009709F43BC58D3992409A
:1022F00009F447C51092FE061092FD068091FC0677
:10230000882379F08091FA069091FB06009709F4F2
:1023100062C58A3B924009F46EC51092FB0610928A
:10232000FA060E94CA032091070730910807621B32
:10233000730B7093F9066093F8060E94850289CFAB
:102340000E941F046093D6067093D7068093D80628
:102350009093D9068AE392E090930607809305074D
:102360000E941F040091D6061091D7062091D8062E
:102370003091D906601B710B820B930B6B3071058A
:102380008105910508F47ECF009104078CE097E069
:102390000E94DF01181619060CF070CF8CE097E050
:1023A0000E94BD010E94071C182F011102C00E944B
:1023B00062021F3709F04DC00091AD071091AE07C2
:1023C00069EA77E0CE0107960E94B9078B859C8564
:1023D000892BB9F16CEA72E0CE0101960E94C10727
:1023E000F12CE12C01501109E016F1067CF4B70143
:1023F000CE0107960E946E01DC016C91CE01019620
:102400000E94D806BFEFEB1AFB0AEECFBE016F5F4A
:102410007F4FCE010D960E943E06CE0101960E948E
:102420005806BE01635F7F4F89EA97E00E94050668
:10243000CE010D960E945806CE0107960E945806BE
:102440001DCFBE01695F7F4FCE010D960E943E06F3
:10245000E8CF1A3021F01D3011F01111C3C0011165
:1024600003C08AE00E94620264EA76E0CE0101962F
:102470000E94C10769EA77E0CE0101960E94C70673
:102480006AEA76E00E94B306BC01CE0107960E947C
:10249000B907BE01695F7F4F8AE098E00E94050698
:1024A000CE0107960E945806CE0101960E9458065A
:1024B000512C412C80910E0890910F084816590616
:1024C00008F089C0B2018AE098E00E946E01FC0128
:1024D0008081F10101900020E9F7E45CF7409091E0
:1024E0000308891309C0F1E0F093C2071092C307F3
:1024F000EFEF4E1A5E0ADECF90910408891361C097
:10250000F0900508A2ECB7E066246394712CCD012D
:10251000825C97408E179F0750F411968C9111970B
:102520008F1103C02FEF621A720A1196F0CFC30108
:10253000880F991F6BD78C01DC012D923C92E3EC44
:10254000F7E090E080E02191211129C0A0900608D9
:10255000B0900708E0900808F0900908D12CC12C31
:10256000AC14BD04A9F04701F80160817181D70165
:102570008D919C910E94181CB4E0EB0EF11C892BEC
:10258000E1F4D4011296ED91FC91B301C8011995C3
:10259000C801D8D71092C3071092C207A9CF2F1134
:1025A000D2CFDF0111971C920196DC01AA0FBB1F4D
:1025B000A00FB11FED93FC93C6CFBFEFCB1ADB0A80
:1025C000CFCF9091C207992309F492CFEE53F84FE1
:1025D000818312828DCF6CEA72E089EA97E00E94D3
:1025E00019074CCE8091AD079091AE07449730F417
:1025F000612F89EA97E00E94D80640CE6CEA72E02B
:1026000089EA97E00E9419078AE00E9462028DE041
:102610000E9462020E948F0531CE0E941F046093C7
:10262000DA067093DB068093DC069093DD068FE676
:1026300092E090930307809302070E941F04009189
:10264000DA061091DB062091DC063091DD06601B76
:10265000710B820B930B6B3F71058105910508F49B
:1026600024CE0E94DE050E94D7056CEA76E0CE01FA
:1026700049960E94C1076AEB76E0CE010D960E9452
:10268000C10730E6E32E32E0F32E10E000E0D70180
:102690008C91B2E0EB0EF11C0E94AD032FEF3FE0F6
:1026A000DC01AED62FEF33E040E050E0BAD5BA01FE
:1026B000A901CE0107960E94780724E030E040E3AC
:1026C000BE01695F7F4FCE0101960E94D507BE0112
:1026D0006F5F7F4FCE010D960E94F406CE010196EA
:1026E0000E945806CE0107960E9458066AEB76E0D3
:1026F0000730110511F461E376E0CE010D960E94DA
:10270000EB060F5F1F4F0830110509F0C0CFBE0167
:10271000635F7F4FCE0149960E94F406CE010D966D
:102720000E9458066EEA76E0CE0107960E94C10725
:10273000809180020E941C03BC01CE0101960E9480
:102740002207BE016F5F7F4FCE0107960E94F406FD
:10275000CE0101960E9458066CEA72E0CE010796FF
:102760000E94EB06809182020E941C03BC01CE01F4
:1027700001960E942207BE016F5F7F4FCE01079630
:102780000E94F406CE0101960E94580661E376E0AD
:10279000CE0107960E94EB06BE01695F7F4FCE0116
:1027A00049960E94F406CE0107960E94580662EBF5
:1027B00076E0CE0143960E94C1076091E4067091D5
:1027C000E5068091E6069091E706DDD5CE010D96EF
:1027D0000E94220723E030E040E2BE01635F7F4FAA
:1027E000CE0107960E94D507BE01695F7F4FCE01DB
:1027F00001960E94B90761E376E0CE0101960E943E
:10280000B306BC01CE0143960E94F406CE010196A8
:102810000E945806CE0107960E945806CE010D96DA
:102820000E94580665EB76E0CE0143960E94EB06C7
:102830006091E8067091E9068091EA069091EB06B6
:10284000A2D5CE010D960E94220723E030E040E29F
:10285000BE01635F7F4FCE0107960E94D507BE0180
:10286000695F7F4FCE0101960E94B90761E376E070
:10287000CE0101960E94B306BC01CE0143960E9490
:10288000F406CE0101960E945806CE0107960E94DA
:102890005806CE010D960E94580668EB76E0CE01F0
:1028A00043960E94EB0663E276E0CE010D960E940D
:1028B000C10725E030E040E2BE01635F7F4FCE01FB
:1028C00007960E94D507BE01695F7F4FCE01019632
:1028D0000E94B90761E376E0CE0101960E94B3063B
:1028E000BC01CE0143960E94F406CE0101960E94DF
:1028F0005806CE0107960E945806CE010D960E94FA
:1029000058066CEB76E0CE0143960E94EB0663E23C
:1029100076E0CE010D960E94C10725E030E040E24E
:10292000BE01635F7F4FCE0107960E94D507BE01AF
:10293000695F7F4FCE0101960E94B90761E376E09F
:10294000CE0101960E94B306BC01CE0143960E94BF
:10295000F406CE0101960E945806CE0107960E9409
:102960005806CE010D960E945806BE016D5E7F4F3F
:10297000CE0149960E94F406CE0143960E94580665
:10298000CE0101960E942808BE016F5F7F4FCE01E5
:1029900049960E94F406CE0101960E945806609165
:1029A000F8067091F906CE0107960E94220726E0EC
:1029B00030E040E2BE01695F7F4FCE0101960E9488
:1029C000D50760EC76E0CE010D960E94C107BE01EE
:1029D0006F5F7F4FCE010D960E94C70669EC76E0CF
:1029E0000E94B306BC01CE0149960E94F406CE01B6
:1029F0000D960E945806CE0101960E945806CE01FF
:102A000007960E945806BE01675E7F4FCE01019671
:102A10000E943E06CE0149960E945806CE010196BC
:102A20000E949705CE0101960E9458068CE097E01F
:102A30000E946602F2CD8838A2E09A0709F49CC091
:102A40008B38924009F047CC0E941F040091E006A9
:102A50001091E1062091E2063091E306AB01BC0142
:102A6000401B510B620B730B8091DE069091DF06C9
:102A7000092E000CAA0BBB0B84179507A607B707F6
:102A800008F02DCC60E08DE00E9444031092010715
:102A90000E941F046093E0067093E1068093E206B3
:102AA0009093E30682E892E0909300078093FF06FC
:102AB0000E941F040091E0061091E1062091E206B9
:102AC0003091E306AB01BC01401B510B620B730B51
:102AD0008091DE069091DF06092E000CAA0BBB0B3D
:102AE00084179507A607B70708F0F9CB61E08DE0DA
:102AF0000E9444030E941F046093E0067093E10665
:102B00008093E2069093E30685E892E090930007B5
:102B10008093FF060E941F040091E0061091E106D9
:102B20002091E2063091E306AB01BC01401B510B42
:102B3000620B730B8091DE069091DF06092E000C6C
:102B4000AA0BBB0B84179507A607B70708F0C7CBDE
:102B500060E08DE00E9444030E941F046093E00641
:102B60007093E1068093E2069093E30688E892E092
:102B7000909300078093FF060E941F040091E006D7
:102B80001091E1062091E2063091E306AB01BC0111
:102B9000401B510B620B730B8091DE069091DF0698
:102BA000092E000CAA0BBB0B84179507A607B707C5
:102BB00008F095CB61E08DE00E9444030E941F0461
:102BC0006093E0067093E1068093E2069093E3063B
:102BD0008BE892E0909300078093FF0635CF6091D9
:102BE000B00770E090E080E009D22DEC3CEC4CECBA
:102BF0005DE363D26B017C016091AF0770E090E010
:102C000080E0FCD19B01AC01C701B60158D34B0158
:102C10005C010E942B04882309F469C08091B507E8
:102C20008C3009F46DC0C8F48B3071F1C12CD12CFB
:102C300080ECE82E8FE7F82E4CC06091AF077091C2
:102C4000B00776276727762790E080E0D5D12DEC76
:102C50003CEC4CEC5DE331D2DACF8551823030F779
:102C60001091B107612F70E0762F662766277F7776
:102C70008091B207682B90E080E0BED12DEC3CEC57
:102C80004CEC5DE31AD254C06091B10770E090E063
:102C900080E0B2D16B017C011091B20717FF09C02F
:102CA000AC019B0160E070E080E89FEB07D36B0113
:102CB0007C011F70612F70E090E080E09FD12DECCF
:102CC0003CEC4CEC5DE3F9D1A7019601F8D26B0125
:102CD0007C01A5019401C501B40186D3811107C00F
:102CE000A7019601C701B6017FD3882351F1109245
:102CF000E8061092E9061092EA061092EB06FACA6C
:102D00001091B107612F70E090E080E075D16B0108
:102D10007C016091B2076F7070E090E080E06ED14E
:102D20002DEC3CEC4CEC5DE3C8D1A7019601C7D279
:102D30006B017C0117FFCDCFF7FAF094F7F8F09410
:102D4000C8CF8092E8069092E906A092EA06B09277
:102D5000EB06C092E406D092E506E092E606F09219
:102D6000E7060E941F046093EC067093ED068093C3
:102D7000EE069093EF068DE992E09093FE06809325
:102D8000FD060E941F040091EC061091ED062091B3
:102D9000EE063091EF06601B710B820B930B693EC0
:102DA00073408105910508F4A9CA0E942B04882369
:102DB00059F08091B5078B3038F08D3008F40FCF83
:102DC0008551823008F439CF812C912C20ECA22E31
:102DD0002FE7B22E1ECF0E941F046093F40670935B
:102DE000F5068093F6069093F7068AEB92E09093AF
:102DF000FB068093FA060E941F040091F4061091CE
:102E0000F5062091F6063091F706601B710B820BD8
:102E1000930B0091F0061091F1062091F20630918B
:102E2000F306061717072807390708F07ACA60E182
:102E300078E0CE0107960E94B90766E178E0CE01FE
:102E400001960E94B907AE01495F5F4FBE016F5FF7
:102E50007F4FCE010D960E94AC08CE010D960E94C8
:102E60009705CE010D960E945806CE0101960E944C
:102E70005806CE0107960E945806ADCF89EA97E022
:102E80000E94580680910808909109085BD38AE057
:102E900098E00E94580680E198E00E94580686E17A
:102EA00098E00E9458068CE198E00E94580682E261
:102EB00098E00E94580688E298E00C9458061F9308
:102EC000FC0199278827BC01E89411911032E9F39D
:102ED000193010F01E30C8F31B3249F01D3241F496
:102EE000689405C02AD0610F711D811D911D11913B
:102EF00010531A30B8F33EF4909580957095619513
:102F00007F4F8F4F9F4F1F910895BB274A3031F459
:102F1000992322F4BDE2909581959F4F45C0BB2730
:102F20002A3051F4992342F4BDE290958095709532
:102F300061957F4F8F4F9F4F16C0592F482F372FC6
:102F4000262F660F771F881F991F660F771F881F10
:102F5000991F620F731F841F951F660F771F881FAD
:102F6000991F0895BB27FA01A62F621771058105E5
:102F70009105330B30FB66F0AA27660F771F881F79
:102F8000991FAA1FA21710F0A21B63953850A9F72A
:102F9000A05DAA3308F0A95DA19336F7B111B193F2
:102FA0001082CA0119C0BB27FB015527AA27880F29
:102FB000991FAA1FA41710F0A41B83955051B9F7AD
:102FC000A05DAA3308F0A95DA193009779F7B1112C
:102FD000B1931192CB0100C0DC01FC01672F71910C
:102FE0007723E1F7329704C07C916D9370836291EF
:102FF000AE17BF07C8F30895E89409C097FB3EF4E5
:1030000090958095709561957F4F8F4F9F4F992335
:10301000A9F0F92F96E9BB279395F69587957795B3
:103020006795B795F111F8CFFAF4BB0F11F460FF73
:103030001BC06F5F7F4F8F4F9F4F16C0882311F0CB
:1030400096E911C0772321F09EE8872F762F05C0DF
:10305000662371F096E8862F70E060E02AF09A957A
:10306000660F771F881FDAF7880F9695879597F96F
:103070000895990F0008550FAA0BE0E8FEEF161609
:103080001706E807F907C0F012161306E407F5075C
:1030900098F0621B730B840B950B39F40A2661F0D0
:1030A000232B242B252B21F408950A2609F4A14073
:1030B000A6958FEF811D811D08950BD078C069D032
:1030C00028F06ED018F0952309F05AC05FC0112483
:1030D000A2C07ED0A0F3959FD1F3950F50E0551F6D
:1030E000629FF001729FBB27F00DB11D639FAA275D
:1030F000F00DB11DAA1F649F6627B00DA11D661FAC
:10310000829F2227B00DA11D621F739FB00DA11DCC
:10311000621F839FA00D611D221F749F3327A00D86
:10312000611D231F849F600D211D822F762F6A2F22
:1031300011249F5750408AF0E1F088234AF0EE0FA7
:10314000FF1FBB1F661F771F881F91505040A9F7B4
:103150009E3F510570F014C05EC05F3FECF3983E97
:10316000DCF3869577956795B795F795E7959F5F1B
:10317000C1F7FE2B880F911D9695879597F90895B5
:1031800097F99F6780E870E060E008959FEF80EC1A
:10319000089500240A9416161706180609060895BD
:1031A00000240A9412161306140605060895092E23
:1031B0000394000C11F4882352F0BB0F40F4BF2B92
:1031C00011F460FF04C06F5F7F4F8F4F9F4F0895D2
:1031D00057FD9058440F551F59F05F3F71F04795C8
:1031E000880F97FB991F61F09F3F79F087950895AD
:1031F000121613061406551FF2CF4695F1DF08C0CC
:10320000161617061806991FF1CF869571056105E8
:1032100008940895E894BB2766277727CB0197F990
:103220000895052E97FB16F400940FD057FD05D096
:1032300014D007FC02D046F408C050954095309554
:1032400021953F4F4F4F5F4F089590958095709512
:1032500061957F4F8F4F9F4F0895A1E21A2EAA1BB1
:10326000BB1BFD010DC0AA1FBB1FEE1FFF1FA21736
:10327000B307E407F50720F0A21BB30BE40BF50B33
:10328000661F771F881F991F1A9469F760957095BC
:10329000809590959B01AC01BD01CF010895A29F3F
:1032A000B001B39FC001A39F700D811D1124911D1A
:1032B000B29F700D811D1124911D08955058BB2798
:1032C000AA270ED074CF65DF30F06ADF20F031F42A
:1032D0009F3F11F41EF45ACF0EF4E095E7FB50CF58
:1032E000E92F76DF80F3BA17620773078407950723
:1032F00018F071F49EF58ECF0EF4E0950B2EBA2FD8
:10330000A02D0B01B90190010C01CA01A0011124EB
:10331000FF27591B99F0593F50F4503E68F11A1697
:10332000F040A22F232F342F4427585FF3CF469528
:1033300037952795A795F0405395C9F77EF41F164A
:10334000BA0B620B730B840BBAF09150A1F0FF0F14
:10335000BB1F661F771F881FC2F70EC0BA0F621F00
:10336000731F841F48F4879577956795B795F795F0
:103370009E3F08F0B3CF9395880F08F09927EE0F82
:1033800097958795089504D06894B11144CF089516
:1033900027DF88F09F5790F0B92F9927B751A0F0F9
:1033A000D1F0660F771F881F991F1AF0BA95C9F7D9
:1033B00012C0B13081F02EDFB1E008952BCF672F1E
:1033C000782F8827B85F39F0B93FCCF38695779589
:1033D0006795B395D9F73EF4909580957095619572
:1033E0007F4F8F4F9F4F089544DE880B990B0895B0
:1033F000EE0FFF1F881F8BBF0790F691E02D1994E9
:103400004EDFB7FF0895821B930B08950F931F9310
:10341000CF93DF938230910510F482E090E0E09149
:103420003008F091310830E020E0B0E0A0E03097C3
:1034300099F42115310509F44AC0281B390B2430B1
:103440003105D8F58A819B816115710589F1FB01F0
:1034500093838283FE0111C04081518102811381D7
:1034600048175907E0F04817590799F4109761F089
:1034700012960C93129713961C933296CF01DF91FC
:10348000CF911F910F910895009330081093310848
:10349000F4CF2115310551F04217530738F0A90137
:1034A000DB019A01BD01DF01F801C1CFEF01F9CFC6
:1034B0009093310880933008CDCFFE01E20FF31FC7
:1034C000819391932250310939832883D7CF20915A
:1034D0002E0830912F08232B41F420918602309141
:1034E000870230932F0820932E0820918402309178
:1034F00085022115310541F42DB73EB74091880270
:1035000050918902241B350BE0912E08F0912F0871
:10351000E217F307A0F42E1B3F0B2817390778F0AA
:10352000AC014E5F5F4F2417350748F04E0F5F1F09
:1035300050932F0840932E08819391939FCFF0E0F2
:10354000E0E09CCFCF93DF930097E9F0FC01329746
:1035500013821282A0913008B0913108ED0130E061
:1035600020E01097A1F420813181820F931F2091D8
:103570002E0830912F082817390709F061C0F09301
:103580002F08E0932E08DF91CF910895EA01CE171E
:10359000DF07E8F54A815B819E0141155105B1F7CE
:1035A000E901FB83EA8349915991C40FD51FEC17B8
:1035B000FD0761F4808191810296840F951FE901D6
:1035C00099838883828193819B838A83F0E0E0E002
:1035D00012968D919C9113970097B9F52D913C917E
:1035E0001197CD010296820F931F20912E083091E2
:1035F0002F082817390739F6309751F510923108FE
:1036000010923008B0932F08A0932E08BCCFD3831C
:10361000C28340815181840F951FC817D90761F477
:103620004E5F5F4F88819981480F591F51834083B6
:103630008A819B81938382832115310509F0B0CF64
:10364000F0933108E09330089ECFFD01DC01C0CF3C
:1036500013821282D7CF4F925F926F927F928F9296
:103660009F92AF92BF92CF92DF92EF92FF920F9311
:103670001F93CF93DF938C01009791F4CB01DF91DF
:10368000CF911F910F91FF90EF90DF90CF90BF905F
:10369000AF909F908F907F906F905F904F90B6CE3D
:1036A000FC01E60FF71F9C0122503109E217F307D6
:1036B00008F4AAC0D901CD91DC911197C617D7079C
:1036C00018F1C530D10570F0CE0104978617970721
:1036D00048F0C61BD70B2297C193D1936D937C936F
:1036E000CF0130DFC801DF91CF911F910F91FF9083
:1036F000EF90DF90CF90BF90AF909F908F907F9092
:103700006F905F904F9008955B01AC1ABD0A4C0119
:103710008C0E9D1EA0913008B0913108512C412C87
:10372000F12CE12C109731F580912E0890912F0803
:103730008815990509F05CC04616570608F058C070
:103740008091840290918502009741F48DB79EB7D5
:103750004091880250918902841B950BE817F90764
:1037600008F052C0F0932F08E0932E08F9017183FE
:103770006083B8CF8D919C91119712966C9012979F
:1037800013967C901397A815B90559F56C0142E082
:10379000C40ED11CCA14DB0420F1AC014A195B0928
:1037A000DA011296159780F062827382518340830A
:1037B000D9016D937C93E114F10471F0D701139654
:1037C000FC93EE9312978ECF22968C0F9D1FF901DA
:1037D00091838083F301EFCFF0933108E0933008B9
:1037E00081CF4816590608F42C017D01D3019ACFE8
:1037F000CB010CDE7C01009739F0AE01B8010FD08F
:10380000C801A0DE87016ECF10E000E06BCF911100
:10381000089581548A5108F4805E855A0895FB0109
:10382000DC0102C001900D9241505040D8F708953C
:10383000FB01DC018D91019080190110D9F3990BE6
:103840000895FB01DC0101900D920020E1F708953D
:1038500011E0C3E0D1E000E005C0802FFE01C8DD2B
:103860002196011DC430D10780E00807B1F7F89414
:02387000FFCF88
:103872000300050006000700080009000A000B000B
:103882000E000F00100011001200130014001500AA
:1038920016001700180019001A001B0019001C005E
:1038A2001E001F002000210022002300240025000A
:1038B200260027003C0029002A002B002C002D00A6
:1038C2002E002F003000310032003300340035006A
:1038D20036003700380039003A003B003C003D001A
:1038E2003E003F00400041004200430044004500CA
:1038F2000200040000003208800000003200640070
:103902009600C800FA002C01000000001602810196
:10391200AE016602DF01BD01D1010D0A004B6F74D9
:1039220075206B6F6D75742100696B696E63692018
:10393200706172616D6574726579652027692720EF
:103942007961646120276F2720676972696E697ADD
:1039520021005B48005B324A003C3C006169006424
:103962006F003E3E0050574D2000204F4E00204F2A
:10397200464600474F4D494F20303120474F4D5565
:103982004C552053495354454D204B4F4D55544CA3
:1039920041524920285553434F2030312050524F35
:1039A200544F4B4F4C5529002D2D2D2D2D2D2D2DA6
:1039B2002D2D2D2D2D2D2D2D2D2D2D2D2D2D2D2D35
:1039C2002D2D2D2D2D2D2D2D2D2D2D2D2D2D2D2D25
:1039D2002D2D2D2D2D2D2D2D2D2D2D2D2D2D2D2D15
:1039E2002D2D2D0068656C702020202020202020A5
:1039F2003A20474F4D554C552053495354454D207D
:103A0200444F5359414C4152494E49204C49535419
:103A1200454C45522E204F726E656B3A2068656C9C
:103A22007000646F202020202020202020203A20B7
:103A320044494A4954414C204F5554505554204B07
:103A42004F4D5554552E204F726E656B3A20646F60
:103A52002030302031202830302D00646F5F6475B3
:103A620072756D202020203A2044494A4954414C25
:103A7200204F555450555420445552554D204249DB
:103A82004C47495349006169646920202020202065
:103A920020203A20414E414C4F4720564520444970
:103AA200474954414C2047495249532056452044E6
:103AB20049474954414C2043494B49532042494CC0
:103AC200474953492E204F726E656B3A20616964F3
:103AD2006920312F300070776D2020202020202097
:103AE20020203A2050574D204B4F4D5554552E20F3
:103AF2004F726E656B3A2070776D20303020313016
:103B02003030302031202830302D00636C7320207B
:103B1200202020202020203A205445524D494E4159
:103B22004C20454B52414E492054454D495A4C4533
:103B3200204F726E656B3A20636C73007265736519
:103B420074202020202020203A2059415A494C49F3
:103B52004D53414C205245534554204255544F4EEB
:103B6200554E4120424153494C49522E204F726ECC
:103B7200656B3A2072657365740076657220202049
:103B82002020202020203A205645525349594F4E9A
:103B92002076652049442042494C474953494E49C1
:103BA2002056455249522E204F726E656B3A20764E
:103BB2006572006269702020202020202020203A97
:103BC2002036204641524B4C492042454550205315
:103BD200455349204F4C55535455524D414B204962
:103BE20043494E204B554C4C414E494C49522E2094
:103BF2004F726E656B3A2062697020312028312D38
:103C02003629006265657020202020202020203A7D
:103C1200204B415254494E20484F5041524C4F5232
:103C2200554E55204B4F4E54524F4C204544455211
:103C32002E204F726E656B3A2062656570206F6E42
:103C42002C2062656570206F666600646F20002D0F
:103C52002D2D30204F6B002D2D2D31204F6B00610B
:103C62006964690070776D006269700062656570F1
:103C7200006F6E005665723A20002049643A2000B7
:103C8200646F5F647572756D0074696D6572003181
:103C92002E302E30004D454741003030303030302C
:103CA200002C002E2E3A3A2041524455494E4F20C4
:103CB2000020434F4E54524F4C2043415244202D3A
:103CC20020474F4D494F203A3A2E2E0020202020E7
:103CD2002020434152443A0049443A0020202056D1
:103CE20045523A0020202020202020202020202081
:103CF20020203230323020497374616E62756C203C
:103D020020202020202020202020202020202000D1
:103D12004D5650005E4D5650200024007B00444911
:103D22003A00543A00483A0044303A0044313A00EA
:0C3D32002C53616E6979653A007D000039
:00000001FF
