:100000000C9463000C948B000C948B000C948B006C
:100010000C948B000C948B000C948B000C948B0034
:100020000C948B000C948B000C948B000C948B0024
:100030000C948B000C948B000C948B000C948B0014
:100040000C94200E0C948B000C94EE0D0C94C80DA7
:100050000C948B000C948B000C948B000C948B00F4
:100060000C948B000C948B000000000024002700EF
:100070002A0000000000250028002B0000000008D6
:10008000000201000003040700000000000000005F
:1000900000000000230026002900040404040404D6
:1000A0000404020202020202030303030303010227
:1000B00004081020408001020408102001020408F6
:1000C00010206A0E941611241FBECFEFD8E0DEBFB9
:1000D000CDBF15E0A0E0B1E0E6E8F7E302C005908F
:1000E0000D92AA36B107D9F726E0AAE6B5E001C01D
:1000F0001D92A038B207E1F710E0C2E6D0E004C0DC
:100100002197FE010E94AD19C136D107C9F70E949F
:10011000F50E0C94B61B0C940000CF92DF92EF9278
:10012000FF92CF93DF93B0910406A0E08111AB2F33
:100130008091050690E0880F991FAC0140575F4FF2
:10014000C0900A06D0900B06E0900C06F0900D06C9
:1001500030E020E0FA01C591D491E881B90190E046
:1001600080E0EB23EA130AC02F5F3F4F6C157D053B
:100170008E059F0578F36FEF7FEFCB01DF91CF9175
:10018000FF90EF90DF90CF900895FC01248135819E
:100190006217730720F480819181009729F41092EF
:1001A000A90589EA95E00895860F971F0895089597
:1001B000AF92BF92CF92DF92EF92FF920F931F9375
:1001C000CF93DF936C017B018B01040F151FEB01B3
:1001D0005E01AE18BF08C017D10759F06991D6016A
:1001E000ED91FC910190F081E02DC6010995892BDC
:1001F00079F7C501DF91CF911F910F91FF90EF909B
:10020000DF90CF90BF90AF900895FC01538D448D47
:10021000252F30E0842F90E0821B930B541710F0B1
:100220000F96089501970895FC01918D828D98177E
:1002300061F0A28DAE0FBF2FB11D5D968C91928D96
:100240009F5F9F71928F90E008958FEF9FEF0895C9
:10025000FC01918D828D981731F0828DE80FF11D90
:10026000858D90E008958FEF9FEF0895FC01918DAB
:10027000228D892F90E08096821B91098F7199279A
:1002800008958AEA95E00E94360121E0892B09F45D
:1002900020E0822F089580E090E0892B29F00E94D1
:1002A000410181110C9400000895FC01A48DA80F58
:1002B000B92FB11DDD962C91848D90E001968F7041
:1002C0009927848FA689B7892C93A089B1898C91AD
:1002D000837080648C93938D848D981306C00288FC
:1002E000F389E02D80818F7D80830895EF92FF92C6
:1002F0000F931F93CF93DF93EC0181E0888F9B8D49
:100300008C8D98131AC0E889F989808185FF15C002
:100310009FB7F894EE89FF896083E889F989808125
:100320008370806480839FBF81E090E0DF91CF91F4
:100330001F910F91FF90EF900895F62E0B8D10E016
:100340000F5F1F4F0F701127E02E8C8D8E110CC088
:100350000FB607FCFACFE889F989808185FFF5CFD0
:10036000CE010E945501F1CFEB8DEC0FFD2FF11D59
:10037000F5AE9FB7F8940B8FEA89FB898081806284
:10038000D1CF682F8AEA95E00C947601CF93DF9362
:10039000EC01888D8823B9F0AA89BB89E889F9899D
:1003A0008C9185FD03C0808186FD0DC00FB607FCD2
:1003B000F7CF8C9185FFF2CF808185FFEDCFCE0105
:1003C0000E945501E9CFDF91CF910895833081F0EC
:1003D00028F4813099F08230A9F008958730A9F08F
:1003E0008830C9F08430B1F4809180008F7D03C0E3
:1003F000809180008F7780938000089584B58F77F7
:1004000084BD089584B58F7DFBCF8091B0008F7738
:100410008093B00008958091B0008F7DF9CFCF9385
:10042000DF93282F30E0F901E458FF4F8491F90160
:10043000E255FF4FD491F901E656FF4FC491CC230A
:10044000A1F081110E94E601EC2FF0E0EE0FFF1FFA
:10045000E057FF4FA591B491EC91ED2381E090E03E
:1004600009F480E0DF91CF91089580E090E0FACF29
:100470001F93CF93DF93282F30E0F901E458FF4F0B
:100480008491F901E255FF4FD491F901E656FF4FEF
:10049000C491CC23A9F0162F81110E94E601EC2F04
:1004A000F0E0EE0FFF1FEE58FF4FA591B4918FB70C
:1004B000F894EC91111108C0D095DE23DC938FBF26
:1004C000DF91CF911F910895DE2BF8CFCF93DF936B
:1004D00090E0FC01E255FF4F249186569F4FFC01AE
:1004E00084918823C9F090E0880F991FFC01E85996
:1004F000FF4FA591B491FC01EE58FF4FC591D491E7
:1005000061110DC09FB7F8948C91209582238C9334
:100510008881282328839FBFDF91CF91089562307F
:1005200051F49FB7F8943C91822F809583238C934C
:10053000E8812E2BEFCF8FB7F894EC912E2B2C93D4
:100540008FBFEACF8E3008F08E5087708064809322
:100550007C0080917A00806480937A0080917A0098
:1005600086FDFCCF809178009091790008953FB787
:10057000F8948091700590917105A0917205B091E9
:10058000730526B5A89B05C02F3F19F00196A11D44
:10059000B11D3FBFBA2FA92F982F8827BC01CD01CD
:1005A000620F711D811D911D42E0660F771F881F2C
:1005B000991F4A95D1F708958F929F92AF92BF925B
:1005C000CF92DF92EF92FF924B015C010E94B70243
:1005D0006B017C010E94B7026C197D098E099F098D
:1005E000683E734081059105A8F321E0821A9108C5
:1005F000A108B10888EEC80E83E0D81EE11CF11CEA
:1006000081149104A104B10429F7FF90EF90DF90C9
:10061000CF90BF90AF909F908F9008952FB7F89490
:1006200060916C0570916D0580916E0590916F05DC
:100630002FBF0895CF92DF92EF92FF920F931F93F7
:10064000CF93DF93CDB7DEB7C054D1400FB6F89447
:10065000DEBF0FBECDBF0E940E03009106061091B3
:10066000070620910806309109066B017C01C01A2B
:10067000D10AE20AF30A97018601003D17402105DD
:10068000310590F480910E06C05CDE4F0FB6F894F1
:10069000DEBF0FBECDBFDF91CF911F910F91FF90B5
:1006A000EF90DF90CF900895609306067093070651
:1006B0008093080690930906109201061092000696
:1006C0001092FF051092FE051092FD0562E08091E8
:1006D00002060E94660261E070E080E090E00E9405
:1006E000DC0261E0809102060E94660260E0809177
:1006F00002060E943802809103068551823020F55F
:100700008BE291E10197F1F762E0809102060E948D
:10071000660280910F0690E08230910538F0880FD4
:10072000991F880F991F05970197F1F7F89480E0BA
:100730000E948D006F3F7F4F8F4F9F4F61F410924B
:100740000E06789480E0A0CF64E170E080E090E055
:100750000E94DC02D9CF81E00E948D006F3F7F4F65
:100760008F4F9F4F61F38E010F5F1F4F6E012FEB75
:10077000C21A2EEFD20A780180E00E948D00F701A4
:10078000608371838283938381E00E948D00F701EF
:100790006483758386839783F8E0EF0EF11CEC1475
:1007A000FD0451F7789430E020E0F801C080D1805A
:1007B000E280F3804481558166817781FFEFCF1617
:1007C000DF06EF06FF0631F04F3F8FEF580768074F
:1007D000780719F410920E06B5CFF90183E0F5956C
:1007E000E7958A95E1F7E350FA4F8081880FC416A8
:1007F000D506E606F70610F180832F5F3F4F085FAE
:100800001F4F2832310589F6409101062091FD05E0
:100810008091FE05280F3327331F8091FF05280F95
:10082000311D80910006820F932F911D9927481743
:10083000190681F681E080930E0626CF8160DCCF19
:1008400080916A05882349F082E390E090937D05CA
:1008500080937C0581E080939F050895FC010190C1
:100860000020E9F73197AF01481B590BBC018AEA18
:1008700095E00C94D8008F929F92AF92BF920F9305
:100880001F93CF93DF93CDB7DEB7A1970FB6F89440
:10089000DEBF0FBECDBF19A2423008F44AE08E0180
:1008A0000F5D1F4F842E912CB12CA12CA50194011A
:1008B0000E94CD18E62FB901CA01EA30F4F4E05DD8
:1008C000D801EE938D01232B242B252B79F790E073
:1008D00080E0109719F0CD010E942E04A1960FB66A
:1008E000F894DEBF0FBECDBFDF91CF911F910F9166
:1008F000BF90AF909F908F900895E95CE1CFCF9328
:10090000DF930E942E04EC018AE491E00E942E0401
:100910008C0F9D1FDF91CF9108958091A2058111C9
:1009200004C08DE491E00C947F040895CF93DF938D
:10093000FC0144815581608171818AEA95E00E94C1
:10094000D800EC018AE491E00E942E048C0F9D1FD8
:10095000DF91CF910895DF92EF92FF920F931F9353
:10096000CF93DF93D82EE92E8B01F42E89E648171A
:1009700039F09FE6491721F089E591E00E947F0454
:10098000CD2DDE2D000F111F0C0F1D1F888122960B
:1009900061E099E6F91201C060E00E946602C017AA
:1009A000D107A1F7DF91CF911F910F91FF90EF90A9
:1009B000DF9008956BE18AEA95E00E94760182E873
:1009C00091E00C942E046BE18AEA95E00E94760196
:1009D00085E891E00C942E04FC01808191810097C0
:1009E00011F00C94B61660E070E0CB010895FC01A4
:1009F00024813581232B39F421E0FB018081882378
:100A000049F020E007C0808191810E94A61B21E06F
:100A1000892BB9F7822F08950F931F93CF93DF93FC
:100A20008C01EB01FC01808191810097E1F06881EC
:100A3000798161157105A9F0428153812C813D8135
:100A40004217530770F00E94AF1B8C819D81F80103
:100A5000958384831D821C82DF91CF911F910F911A
:100A600008950E944F1A88819981F80191838083AB
:100A70008A819B81938382838C819D8195838483EA
:100A8000198218821B821A82E5CFFC011182108222
:100A900013821282158214820C940C05CF93DF937B
:100AA000EC0188819981009711F00E944F1A1982F8
:100AB00018821D821C821B821A82DF91CF910895B9
:100AC000FC0180819181009711F00C944F1A0895D8
:100AD0000F931F93CF93DF93EC0188819981009747
:100AE00059F02A813B812617370730F081E0DF91EA
:100AF000CF911F910F9108958B016F5F7F4F0E94DF
:100B0000D81A009759F0998388831B830A832C8114
:100B10003D81232B59F7FC011082E8CF80E0E7CF1D
:100B2000EF92FF920F931F93CF93DF93611571059F
:100B300041F480E0DF91CF911F910F91FF90EF90F2
:100B4000089541155105B1F07B01EC010C811D8127
:100B5000040F151FB8010E946805882351F32881EE
:100B600039818C819D81B701820F931F0E94AF1B39
:100B70001D830C8381E0DECFCF93DF93EC01FB017B
:100B800001900020E9F73197AF01461B570B0E94F7
:100B90009005811103C0CE010E944E05CE01DF9168
:100BA000CF910895CF93DF93EC01FB0144815581F0
:100BB000608171810E949005811103C0CE010E9465
:100BC0004E05CE01DF91CF910895CF93DF9300D0F2
:100BD000CDB7DEB769831A8241E050E0BE016F5F96
:100BE0007F4F0E9490050F900F90DF91CF91089555
:100BF000FB0101900020E9F73197AF01461B570B2D
:100C00000C949005FB0144815581608171810C94A5
:100C10009005EF92FF920F931F93CF93DF93EC0118
:100C20007B018A01BA010E94680581110BC0CE01C7
:100C30000E944E05CE01DF91CF911F910F91FF9041
:100C4000EF9008951D830C83B701888199810E94DC
:100C5000AF1BF0CFFB0101900020E9F73197AF0106
:100C6000461B570B0C9409060F931F93CF93DF93EA
:100C7000CDB7DEB762970FB6F894DEBF0FBECDBF1B
:100C80008C01CB01F801118210821382128215822D
:100C900014824AE0BE016F5F7F4F0E94DD16BE01E5
:100CA0006F5F7F4FC8010E942A0662960FB6F894C4
:100CB000DEBF0FBECDBFDF91CF911F910F91089581
:100CC0000F931F93CF93DF93CDB7DEB761970FB626
:100CD000F894DEBF0FBECDBF8C01CB01F8011182AD
:100CE000108213821282158214824AE0BE016F5F65
:100CF0007F4F0E942E17BE016F5F7F4FC8010E9479
:100D00002A0661960FB6F894DEBF0FBECDBFDF9105
:100D1000CF911F910F9108950F931F93CF93DF935E
:100D2000CDB7DEB7A2970FB6F894DEBF0FBECDBF2A
:100D30008C01CB01BA01F801118210821382128258
:100D4000158214822AE0AE014F5F5F4F0E94E816C1
:100D5000BE016F5F7F4FC8010E942A06A2960FB6A0
:100D6000F894DEBF0FBECDBFDF91CF911F910F91E1
:100D70000895CF93DF93EC01FB018617970749F0A5
:100D8000608171816115710541F0448155810E9436
:100D90000906CE01DF91CF9108950E944E05F9CF4B
:100DA000FC011182108213821282158214820C942B
:100DB000B906FC01118210821382128215821482FC
:100DC0006115710551F0FB0101900020E9F73197A1
:100DD000AF01461B570B0C94090608959F92AF92E2
:100DE000BF92CF92DF92EF92FF920F931F93CF9318
:100DF000DF9300D000D000D0CDB7DEB77C018B01EF
:100E0000942E5901FB018481958182179307E0F5A7
:100E10006CE471E0CE0101960E94D906D12CC12C60
:100E2000F801848195819501281B390BC216D306E0
:100E300048F4692DCE0101960E94E5053FEFC31AE3
:100E4000D30AEECFB801CE0101960E940206BE0180
:100E50006F5F7F4FC7010E944505CE0101960E943A
:100E60006005C70126960FB6F894DEBF0FBECDBF52
:100E7000DF91CF911F910F91FF90EF90DF90CF9076
:100E8000BF90AF909F900895C7010E944505E9CF9C
:100E9000CF92DF92EF92FF920F931F93CF93DF9346
:100EA00000D000D000D0CDB7DEB78C018091A20574
:100EB00069E871E0882311F06AE871E0C8010E94D6
:100EC000D90686E0C82E81E0D82EF12CE12C85E0F1
:100ED000E816F1049CF163EC74E0C8010E94F80587
:100EE00063E971E0E9E0EE16F10411F06CE471E001
:100EF000C8010E94F805FFEFEF1AFF0A82E0C80E52
:100F0000D11CEAE0EE16F10411F78091A2058111DF
:100F100005C063E971E0C8010E94F805C801269682
:100F20000FB6F894DEBF0FBECDBFDF91CF911F91FA
:100F30000F91FF90EF90DF90CF900895F6018081A0
:100F40000E940F02BC01CE0101960E943406BE0130
:100F50006F5F7F4FC8010E940206CE0101960E947A
:100F60006005C4CF0F931F93CF93DF93FC012481BF
:100F7000358162177307F1F4EC016CE471E00E94B3
:100F8000F704811117C010E000E02C813D810217A9
:100F9000130788F4B801CE010E94C500FC018081CE
:100FA000082E000C990BC0970A9720F40F5F1F4F73
:100FB00081E0EBCF80E0DF91CF911F910F910895F9
:100FC000CF92DF92EF92FF920F931F93CF93DF9315
:100FD000CDB7DEB762970FB6F894DEBF0FBECDBFB8
:100FE0006C017B018A016CE471E0CE0101960E94E4
:100FF000D90661E974E0C7010E94F7048823C1F0B3
:10100000C8010E94EC04660F771F605E7E4FFB01F3
:1010100080810E940F02BC01CE0107960E94340617
:10102000BE01695F7F4FCE0101960E940C0539C059
:101030006CE871E0C7010E94F704882309F470C0CE
:10104000C8010E94EC04660F771F605F7E4FFB01B2
:1010500080810E94A2022FEF3FE0DC010E94A619CE
:101060002FEF33E040E050E00E947718BA01A90169
:10107000CE0107960E948C0624E030E040E3BE01DA
:10108000695F7F4FCE010D960E94EE06BE01635F41
:101090007F4FCE0101960E940C05CE010D960E9455
:1010A0006005CE0107960E94600569E871E0CE01F7
:1010B00007960E94D906B701CE0107960E94D20575
:1010C00069E575E00E94BC05B8010E94D20569E59A
:1010D00075E00E94BC05BE016F5F7F4F0E94D20584
:1010E00062E971E00E94BC05BC01C6010E94D00605
:1010F000CE0107960E946005CE0101960E94600510
:10110000C60162960FB6F894DEBF0FBECDBFDF9169
:10111000CF911F910F91FF90EF90DF90CF900895A6
:101120006FE871E0C7010E94F704882309F4BDCF7E
:10113000C8010E94EC04660F771F6A5F7E4F67CF7D
:10114000AF92BF92CF92DF92EF92FF920F931F93D5
:10115000CF93DF93CDB7DEB72C970FB6F894DEBFF1
:101160000FBECDBF6C017B01B42E0E94EC04660F54
:10117000771F60507F4FFB0100811181BB2009F474
:10118000A2C02FEF30E0D7010E94A61920E137E27C
:1011900040E050E00E947718B22EA32EE22EF32EEC
:1011A00061E0802F0E946602E114F10429F460E0FE
:1011B000802F0E94380231C0FFEFEF16F10411F4C6
:1011C00061E0F6CFF801FF27E458FF4FE491E330E8
:1011D00009F45DC050F4E130E1F0E23009F452C0AE
:1011E00080E8E816F10464F7E2CFE73009F45BC069
:1011F000E83009F460C0E43099F7809180008062A3
:10120000809380008B2D9A2D90938B0080938A0081
:1012100004C084B5806884BDB7BC8091A2058111EB
:1012200020C065E971E0CE0101960E94D906B601A1
:10123000CE0101960E94D2056AE971E00E94BC05C8
:10124000BC01CE0107960E94D006CE0107960E94EF
:101250009604CE0107960E946005CE0101960E9479
:1012600060052C960FB6F894DEBF0FBECDBFDF91A0
:10127000CF911F910F91FF90EF90DF90CF90BF9093
:10128000AF90089584B5806284BDB8BCC6CF80910C
:1012900080008068809380008B2D9A2D9093890028
:1012A00080938800BACF8091B00080688093B000AE
:1012B000B092B300B2CF8091B00080628093B00052
:1012C000B092B400AACF61E0802F0E94660260E075
:1012D000802F0E9438028091A2058111C2CF65E95A
:1012E00071E0CE0101960E94D906B601CE010196A9
:1012F0000E94D2056EE971E0A1CFCF93DF93CDB705
:10130000DEB768970FB6F894DEBF0FBECDBF83EA95
:1013100091E00E947F0488ED91E00E947F0484E1C7
:1013200092E00E947F0464E070E0CE0107960E9484
:10133000600622E030E040E3BE01695F7F4FCE01EE
:101340000D960E94EE0662E572E0CE0101960E94C3
:10135000D906BE01635F7F4FCE0101960E94D20580
:1013600061E374E00E94BC05BC01CE0143960E947B
:10137000D006CE0143960E949604CE0143960E9469
:101380006005CE0101960E946005CE010D960E9477
:101390006005CE0107960E9460058BE892E00E94EE
:1013A0007F0486EB92E00E947F0462E070E0CE0151
:1013B00007960E94600622E030E040E3BE01695FCC
:1013C0007F4FCE010D960E94EE0666E073E0CE01DF
:1013D00001960E94D906BE01635F7F4FCE01019640
:1013E0000E94D20561E374E00E94BC05BC01CE01FD
:1013F00043960E94D006CE0143960E949604CE01E9
:1014000043960E946005CE0101960E946005CE01C0
:101410000D960E946005CE0107960E9460058BE341
:1014200093E00E947F048CE693E00E947F048AEAA6
:1014300093E00E947F0483EE93E00E947F0483E3A5
:1014400094E00E947F0488ED91E00E947F046896FA
:101450000FB6F894DEBF0FBECDBFDF91CF910895D8
:101460008F929F92AF92BF92CF92DF92EF92FF92B4
:101470000F931F93CF93DF93CDB7DEB7E6970FB6E9
:10148000F894DEBF0FBECDBF8C01FC016281738179
:10149000CE0149960E94D906F80164817581CE017A
:1014A0004F960E94D906F80166817781CE01859614
:1014B0000E94D906F80160857185CE018B960E9445
:1014C000D906F80162857385CE01C1960E94D906BE
:1014D0008D8D9E8D0297079718F00E948D0483C012
:1014E0006FE871E0CE0149960E94F704882309F461
:1014F0000CC1BE01615E7F4FCE0101960E94D006F5
:1015000062E070E0CE0101960E94B20711E08823EC
:1015100059F0CE014F960E94EC0411E06530710540
:10152000810591050CF410E0CE0101960E94600542
:101530001111D3CFBE016B5D7F4FCE0101960E948A
:10154000D00661E070E0CE0101960E94B207182F2C
:10155000CE0101960E946005111134C070E060E078
:10156000CE0185960E94C500FC0180818A3009F079
:10157000B4CF0E942004BE01615E7F4FCE0107966A
:101580000E94D006BE01675E7F4FCE0101960E9489
:10159000D006AE01495F5F4FBE016F5F7F4FCE0146
:1015A0000D960E94E007CE010D960E949604CE0192
:1015B0000D960E946005CE0101960E946005CE0145
:1015C000079650C20E942004CE0185960E94EC042A
:1015D000611571058105910569F16130710581051C
:1015E000910509F466C0CE01C1960E946005CE0146
:1015F0008B960E946005CE0185960E946005CE0103
:101600004F960E946005CE0149960E946005E696BD
:101610000FB6F894DEBF0FBECDBFDF91CF911F9103
:101620000F91FF90EF90DF90CF90BF90AF909F9081
:101630008F900895BE01615E7F4FCE0101960E949A
:10164000D006CE0101960E94EC04660F771FFB01C5
:10165000EA5FFE4F60E080810E943802CE01019671
:101660000E9460058091A2058111BDCF6BE774E0F7
:10167000CE0101960E94D906BE01615E7F4FCE0168
:1016800001960E94D2056FE774E00E94BC05BC0180
:10169000CE0107960E94D006CE0107960E949604BE
:1016A000CE0107960E946005CE0101960E9460055A
:1016B0009ACFBE01615E7F4FCE0101960E94D00697
:1016C000CE0101960E94EC04660F771FFB01EA5FD2
:1016D000FE4F61E080810E943802CE0101960E9497
:1016E00060058091A20581117ECF6BE774E0CE0189
:1016F00001960E94D906BE01615E7F4FCE01019620
:101700000E94D20567E874E0C0CF6FE874E0CE01B4
:1017100049960E94F704882369F1BE01615E7F4FFC
:10172000CE0101960E94D00661E070E0CE010196E4
:101730000E94B207182FCE0101960E946005112366
:1017400009F4CBCE0E942004CE014F960E94EC04F7
:10175000611571058105910551F0613071058105B3
:10176000910509F040CF81E08093A2053CCF109213
:10177000A20539CF64E974E0CE0149960E94F704CE
:10178000882309F45DC0BE01615E7F4FCE010796DC
:101790000E94D00662E070E0CE0107960E94B20778
:1017A000182F882309F44AC089A59AA5069798F4AA
:1017B000BE01655D7F4FCE0101960E94D00661E0BB
:1017C00070E0CE0101960E94B20711E01827CE0109
:1017D00001960E946005CE0107960E9460051111D6
:1017E0007CCE0E942004BE01615E7F4FCE01019637
:1017F0000E94D006CE0185960E94EC046B01CE01BA
:101800008B960E94EC044B015C01BE016F5F7F4F21
:10181000CE0107960E94D00641E089288A288B28AD
:1018200009F440E0B601CE0107960E94A008CE015F
:1018300007960E946005CE01019614C111E0CBCF3E
:1018400068E974E0CE0149960E94F704882351F1BB
:10185000BE01615E7F4FCE0101960E94D00661E01D
:1018600070E0CE0101960E94B207182FCE010196BA
:101870000E946005112309F430CE0E942004CE019D
:101880004F960E94EC04660F771F665D7E4FFB014A
:101890008081918190937D0580937C0581E0809388
:1018A0009F05A1CE6CE974E0CE0149960E94F70431
:1018B0008823D1F061EA74E0CE014F960E94F704CC
:1018C000882331F081E080936A050E9420048BCE4A
:1018D00067E774E0CE014F960E94F704882309F46D
:1018E00082CE10926A057FCE6DE472E0CE014996F9
:1018F0000E94F704882349F08091A205811173CEDC
:101900000E9420040E947D096ECE68E673E0CE013D
:1019100049960E94F704882359F08091A20581110D
:1019200062CE0E9420040E94E3040E94DA045BCE8F
:1019300064EA73E0CE0149960E94F704882309F413
:101940004EC00E9420041092A20510E000E0B801F1
:10195000CE0107960E94340663EC74E0CE010D962A
:101960000E94D906BE01695F7F4FCE010D960E948D
:10197000D205BC01CE0101960E94D00640E070E085
:1019800060E0CE0101960E94A008CE0101960E945F
:101990006005CE010D960E946005CE0107960E945B
:1019A00060050F5F1F4F0330110589F606E011E057
:1019B00080E1E82E81E0F82EE016F10641F0F80112
:1019C00080810E5F1F4F60E00E943802F5CF80914A
:1019D000A205882309F407CE0E94E30404CE6FED2C
:1019E00073E0CE0149960E94F7048823F1F10E942A
:1019F00020046AE676E0CE010D960E94D00666E7E6
:101A000076E0CE0107960E94D00664EA74E0CE012B
:101A100001960E94D906BE01695F7F4FCE010196F3
:101A20000E94D2056AEA74E00E94BC05BE01635FB1
:101A30007F4F0E94D205BC01CE0143960E94D00682
:101A4000CE0143960E949604CE0143960E94600503
:101A5000CE0101960E946005CE0107960E946005A6
:101A6000CE010D960E946005BECD60EB74E0CE0104
:101A700049960E94F704882359F00E942004CE0161
:101A800001960E944807CE0101960E949604D3CE8B
:101A900061E974E0CE0149960E94F704811169CD95
:101AA0006CE871E0CE0149960E94F704811161CD86
:101AB00069EB74E0CE0149960E94F704882309F48B
:101AC0000CCDBE01615E7F4FCE0101960E94D00613
:101AD00061E070E0CE0101960E94B207182FCE019E
:101AE00001960E946005112309F4F7CC0E9420049E
:101AF000CE014F960E94EC04611571058105910598
:101B000009F443C0613071058105910509F06BCD81
:101B100089A59AA5069708F0E0CC8FA598A9039708
:101B200008F0DBCCBE016F5C7F4FCE0101960E94B6
:101B3000D00662E070E0CE0101960E94B207182F35
:101B4000CE0101960E946005112309F4C6CCCE0196
:101B500085960E94EC0460938E0570938F058093A8
:101B6000900590939105BE01655D7F4F84E696E0F8
:101B70000E94B906BE016F5C7F4F8EE596E00E9421
:101B8000B90681E080939A052ECD10929A052BCD4F
:101B90001F920F920FB60F9211242F933F934F93E2
:101BA0005F936F937F938F939F93AF93BF93EF93C5
:101BB000FF938AEA95E00E945501FF91EF91BF9152
:101BC000AF919F918F917F916F915F914F913F91D5
:101BD0002F910F900FBE0F901F9018951F920F928C
:101BE0000FB60F9211242F938F939F93EF93FF9330
:101BF000E091BA05F091BB058081E091C005F091BC
:101C0000C10582FD1BC090818091C3058F5F8F71DC
:101C10002091C405821741F0E091C305F0E0E6553C
:101C2000FA4F958F8093C305FF91EF919F918F910C
:101C30002F910F900FBE0F901F9018958081F4CFB9
:101C40001F920F920FB60F9211242F933F938F93F1
:101C50009F93AF93BF9380916C0590916D05A09178
:101C60006E05B0916F0530916B0523E0230F2D3782
:101C700058F50196A11DB11D20936B0580936C054D
:101C800090936D05A0936E05B0936F0580917005DC
:101C900090917105A0917205B09173050196A11DF7
:101CA000B11D8093700590937105A0937205B09358
:101CB0007305BF91AF919F918F913F912F910F909D
:101CC0000FBE0F901F90189526E8230F0296A11DB6
:101CD000B11DD2CFEAEAF5E01382128288EE93E0DA
:101CE000A0E0B0E084839583A683B7838CE391E082
:101CF0009183808385EC90E09587848784EC90E0E5
:101D00009787868780EC90E0918B808B81EC90E0C8
:101D1000938B828B82EC90E0958B848B86EC90E0A9
:101D2000978B868B118E128E138E148E6FEB74E050
:101D300086E796E00E94D90665EC74E080E796E0BD
:101D40000E94D90669EC74E08AE696E00E94D90602
:101D50006CE471E084E696E00E94D9066CE471E0E0
:101D60008EE596E00E94D9066CE471E088E596E085
:101D70000E94D906E0E1F6E010828EE580935106DC
:101D800084E28093520680E28093530610925706B5
:101D90001092560610925506109254061182ADEF1D
:101DA000B5E08CE015968C9315978BE016968C9386
:101DB0001697EAEBF0E0E4911796EC931797E6EAB2
:101DC000F0E0E4911896EC93189740E85EE360E049
:101DD00070E01D964D935D936D937C9350976CE4EA
:101DE00071E087EF95E00C94D906CF93DF93CDB7E0
:101DF000DEB76E970FB6F894DEBF0FBECDBF7894F6
:101E000084B5826084BD84B5816084BD85B58260FF
:101E100085BD85B5816085BD80916E0081608093B0
:101E20006E00109281008091810082608093810019
:101E30008091810081608093810080918000816029
:101E4000809380008091B10084608093B100809184
:101E5000B00081608093B00080917A0084608093AC
:101E60007A0080917A00826080937A0080917A0073
:101E7000816080937A0080917A00806880937A00F4
:101E80001092C10061E08DE00E94660249E662E0C6
:101E900070E080E291E00E94AB0449E668E070E007
:101EA00080E191E00E94AB044FE665E070E086E0DF
:101EB00091E00E94AB044FE663E070E080E091E0C7
:101EC0000E94AB04E091BA05F091BB0582E08083EB
:101ED000E091B605F091B7051082E091B805F09158
:101EE000B90580E180831092C205E091BE05F091B2
:101EF000BF0586E08083E091BC05F091BD0580813F
:101F000080618083E091BC05F091BD05808188608F
:101F10008083E091BC05F091BD058081806880835D
:101F2000E091BC05F091BD0580818F7D80838AEAB8
:101F300095E00E94360118161906CCF362E08091F4
:101F400002060E9466020E940E03605D77408109CE
:101F50009109609306067093070680930806909394
:101F6000090687E380930F0688EE91E00E947F04C4
:101F700062ED74E0CE0107960E94D90660E776E034
:101F8000CE0107960E94D20560EE74E00E94BC0567
:101F9000BC01CE0101960E94D006CE0101960E949E
:101FA0009604CE0101960E946005CE0107960E941C
:101FB00060056BEF74E0CE0107960E94D90660E7DA
:101FC00076E0CE0107960E94D2056CE375E00E9490
:101FD000BC0567E075E00E94BC056AE676E00E94F9
:101FE000D2056BE075E00E94BC0566E776E00E94D2
:101FF000D20569E375E00E94BC05BC01CE010196E3
:102000000E94D006CE0101960E949604CE01019650
:102010000E946005CE0107960E94600583E195E06D
:102020000E947F0488EE91E00E947F040E947D0957
:1020300060915406709155066F5F7F4F70935506FF
:1020400060935406660F771F660F771F80915606C0
:10205000909157060E94D81A90935706809356067F
:10206000E0915406F0915506E150F04CEE0FFF1F41
:10207000EE0FFF1FE80FF91F8FE395E09183808338
:1020800080E39AE0938382831092A4051092A305C3
:102090001092A1051092A00510929E0510929D0528
:1020A00010929C0510929B0510929905109298052C
:1020B000B1E12B2EB6E03B2E0E94B7026093A5053E
:1020C0007093A6058093A7059093A8058091A3051A
:1020D0009091A405009709F470C08A33924009F4E6
:1020E0007CC01092A4051092A3058091A2058823BC
:1020F00079F08091A0059091A105009709F4CCC1D9
:102100008F36924009F4D8C11092A1051092A00513
:1021100080919F058823B1F080919D0590919E0547
:102120008538E2E09E0709F438C408F0C7C3009779
:1021300009F4F1C38238924009F4FDC310929E0560
:1021400010929D0580919B0590919C05009709F444
:102150005EC58D39924009F46AC510929C051092B3
:102160009B0580919A05882379F08091980590913C
:102170009905009709F485C58A3B924009F491C5F9
:1021800010929905109298050E94B7022091A5051A
:102190003091A605621B730B7093970560939605AB
:1021A00080E090E0892B09F487CF0E9441018823C9
:1021B00009F482CF0E9400007FCF0E940E0360933B
:1021C00074057093750580937605909377058AE37F
:1021D00092E09093A4058093A3050E940E030091C2
:1021E0007405109175052091760530917705601B77
:1021F000710B820B930B6B3071058105910508F40F
:1022000074CF0091A2058AEA95E00E943601181663
:1022100019060CF066CF8AEA95E00E9414010E942C
:10222000951B182F011102C00E94C1011F3709F030
:102230004DC00091FB051091FC0567EF75E0CE01E4
:1022400007960E94D0068B859C85892BB9F16CE49A
:1022500071E0CE0101960E94D906F12CE12C0150CB
:102260001109E016F1067CF4B701CE0107960E9431
:10227000C500DC016C91CE0101960E94E505BFEF1F
:10228000EB1AFB0AEECFBE016F5F7F4FCE010D96BA
:102290000E944505CE0101960E946005BE01635F64
:1022A0007F4F87EF95E00E940C05CE010D960E94AE
:1022B0006005CE0107960E94600513CFBE01695FDD
:1022C0007F4FCE010D960E944505E8CF1A3021F0D0
:1022D0001D3011F01111C5C0011103C08AE00E9428
:1022E000C10163E475E0CE0101960E94D90667EF53
:1022F00075E0CE0101960E94D20569E475E00E9466
:10230000BC05BC01CE0107960E94D006BE01695FE4
:102310007F4F88E596E00E940C05CE0107960E944B
:102320006005CE0101960E946005512C412C8091E0
:102330005C0690915D064816590608F08BC0B20104
:1023400088E596E00E94C500FC018081F1010190C2
:102350000020E9F7E251F64090915106891309C037
:10236000F1E0F093100610921106EFEF4E1A5E0A9C
:10237000DECF90915206891363C0F0905306A0E11E
:10238000B6E066246394712CCD01805196408E177F
:102390009F0750F411968C9111978F1103C02FEF66
:1023A000621A720A1196F0CFC301880F991F0E941A
:1023B000B3198C01DC012D923C92E1E1F6E090E052
:1023C00080E0219121112AC0A0905406B0905506BA
:1023D000E0905606F0905706D12CC12CAC14BD04E9
:1023E000A9F04701F80160817181D7018D919C911D
:1023F0000E94A61BB4E0EB0EF11C892BE9F4D4017A
:102400001296ED91FC91B301C8010995C8010E9493
:102410004F1A1092110610921006A7CF2F11D1CF8C
:10242000DF0111971C920196DC01AA0FBB1FA00FC0
:10243000B11FED93FC93C5CFBFEFCB1ADB0ACECF14
:1024400090911006992309F490CFE05FF94F8183B2
:1024500012828BCF6CE471E087EF95E00E942A0630
:1024600040CE8091FB059091FC05449730F4612F9C
:1024700087EF95E00E94E50534CE6CE471E087EFCC
:1024800095E00E942A068AE00E94C1018DE00E9428
:10249000C1010E948D0425CE0E940E036093780531
:1024A0007093790580937A0590937B058FE692E08F
:1024B0009093A1058093A0050E940E0300917805DA
:1024C0001091790520917A0530917B05601B710B85
:1024D000820B930B6B3F71058105910508F418CEB3
:1024E0000E94E3040E94DA046BE475E0CE01499691
:1024F0000E94D90669E575E0CE010D960E94D906C5
:1025000030E1E32E31E0F32E10E000E0D7018C91B2
:10251000B2E0EB0EF11C0E94A2022FEF3FE0DC01C3
:102520000E94A6192FEF33E040E050E00E94771898
:10253000BA01A901CE0107960E948C0624E030E082
:1025400040E3BE01695F7F4FCE0101960E94EE0617
:10255000BE016F5F7F4FCE010D960E940206CE0135
:1025600001960E946005CE0107960E94600569E50C
:1025700075E00730110511F460ED74E0CE010D96A1
:102580000E94F8050F5F1F4F0830110509F0BECFFC
:10259000BE01635F7F4FCE0149960E940206CE01C5
:1025A0000D960E9460056DE475E0CE0107960E94CD
:1025B000D906809120010E940F02BC01CE01019634
:1025C0000E943406BE016F5F7F4FCE0107960E94C6
:1025D0000206CE0101960E9460056CE471E0CE0116
:1025E00007960E94F805809122010E940F02BC010B
:1025F000CE0101960E943406BE016F5F7F4FCE016F
:1026000007960E940206CE0101960E94600560EDC9
:1026100074E0CE0107960E94F805BE01695F7F4F06
:10262000CE0149960E940206CE0107960E946005DF
:1026300061E575E0CE0143960E94D906609182055E
:102640007091830580918405909185050E946B1996
:10265000CE010D960E94340623E030E040E2BE0138
:10266000635F7F4FCE0107960E94EE06BE01695F51
:102670007F4FCE0101960E94D00660ED74E0CE013E
:1026800001960E94BC05BC01CE0143960E94020641
:10269000CE0101960E946005CE0107960E9460055A
:1026A000CE010D960E94600564E575E0CE0143966B
:1026B0000E94F805609186057091870580918805D4
:1026C000909189050E946B19CE010D960E943406E7
:1026D00023E030E040E2BE01635F7F4FCE0107960A
:1026E0000E94EE06BE01695F7F4FCE0101960E94F7
:1026F000D00660ED74E0CE0101960E94BC05BC01DD
:10270000CE0143960E940206CE0101960E9460050A
:10271000CE0107960E946005CE010D960E946005CD
:1027200067E575E0CE0143960E94F80563EC74E01E
:10273000CE010D960E94D90625E030E040E2BE01B0
:10274000635F7F4FCE0107960E94EE06BE01695F70
:102750007F4FCE0101960E94D00660ED74E0CE015D
:1027600001960E94BC05BC01CE0143960E94020660
:10277000CE0101960E946005CE0107960E94600579
:10278000CE010D960E9460056BE575E0CE01439683
:102790000E94F80563EC74E0CE010D960E94D90604
:1027A00025E030E040E2BE01635F7F4FCE01079637
:1027B0000E94EE06BE01695F7F4FCE0101960E9426
:1027C000D00660ED74E0CE0101960E94BC05BC010C
:1027D000CE0143960E940206CE0101960E9460053A
:1027E000CE0107960E946005CE010D960E946005FD
:1027F000BE016D5E7F4FCE0149960E940206CE015A
:1028000043960E946005CE0101960E944807BE01D2
:102810006F5F7F4FCE0149960E940206CE0101965E
:102820000E9460056091960570919705CE0107960C
:102830000E94340626E030E040E2BE01695F7F4F2F
:10284000CE0101960E94EE066FE575E0CE010D9671
:102850000E94D906BE016F5F7F4FCE010D960E9488
:10286000D20568E675E00E94BC05BC01CE01499620
:102870000E940206CE010D960E946005CE010196CF
:102880000E946005CE0107960E946005BE01675E4A
:102890007F4FCE0101960E944505CE0149960E94C8
:1028A0006005CE0101960E949604CE0101960E9419
:1028B00060058AEA95E00E94C601EECD8838A2E064
:1028C0009A0709F49CC08B38924009F037CC0E94DB
:1028D0000E0300917E0510917F05209180053091B7
:1028E0008105AB01BC01401B510B620B730B809146
:1028F0007C0590917D05092E000CAA0BBB0B84175B
:102900009507A607B70708F01DCC60E08DE00E9490
:10291000380210929F050E940E0360937E0570930B
:102920007F05809380059093810582E892E09093E3
:102930009E0580939D050E940E0300917E051091D7
:102940007F052091800530918105AB01BC01401BC2
:10295000510B620B730B80917C0590917D05092EC4
:10296000000CAA0BBB0B84179507A607B70708F046
:10297000E9CB61E08DE00E9438020E940E03609373
:102980007E0570937F05809380059093810585E88F
:1029900092E090939E0580939D050E940E03009106
:1029A0007E0510917F052091800530918105AB0156
:1029B000BC01401B510B620B730B80917C05909105
:1029C0007D05092E000CAA0BBB0B84179507A607E3
:1029D000B70708F0B7CB60E08DE00E9438020E9494
:1029E0000E0360937E0570937F058093800590931E
:1029F000810588E892E090939E0580939D050E9452
:102A00000E0300917E0510917F0520918005309185
:102A10008105AB01BC01401B510B620B730B809114
:102A20007C0590917D05092E000CAA0BBB0B841729
:102A30009507A607B70708F085CB61E08DE00E94F7
:102A400038020E940E0360937E0570937F05809389
:102A50008005909381058BE892E090939E0580938A
:102A60009D0535CF6091FE0570E090E080E00E940A
:102A70005A172DEC3CEC4CEC5DE30E94B9176B014E
:102A80007C016091FD0570E090E080E00E945A17A3
:102A90009B01AC01C701B6010E94FF184B015C010C
:102AA0000E941A03882309F474C0809103068C30B5
:102AB00009F478C0D8F48B3091F1C12CD12C80EC82
:102AC000E82E8FE7F82E55C06091FD057091FE0548
:102AD00076276727762790E080E00E9458172DEC34
:102AE0003CEC4CEC5DE30E94B917D8CF85518230A5
:102AF00020F71091FF05612F70E0762F662766277B
:102B00007F7780910006682B90E080E00E94581744
:102B10002DEC3CEC4CEC5DE30E94B9175FC060917A
:102B2000FF0570E090E080E00E9458176B017C0187
:102B30001091000617FF0AC0AC019B0160E070E035
:102B400080E89FEB0E94FE186B017C011F70612FD3
:102B500070E090E080E00E945A172DEC3CEC4CECC9
:102B60005DE30E94B917A70196010E94FF186B014F
:102B70007C01A5019401C501B4010E94A119811134
:102B800008C0A7019601C701B6010E94A1198823B8
:102B900071F11092860510928705109288051092A7
:102BA0008905DBCA1091FF05612F70E090E080E09D
:102BB0000E9458176B017C01609100066F7070E0F5
:102BC00090E080E00E945A172DEC3CEC4CEC5DE369
:102BD0000E94B917A70196010E94FF186B017C01A2
:102BE00017FFC7CFF7FAF094F7F8F094C2CF8092AE
:102BF000860590928705A0928805B0928905C092BB
:102C00008205D0928305E0928405F09285050E94AA
:102C10000E0360938A0570938B0580938C059093C7
:102C20008D058DE992E090939C0580939B050E9411
:102C30000E0300918A0510918B0520918C0530912F
:102C40008D05601B710B820B930B693E73408105F0
:102C5000910508F486CA0E941A03882359F08091CE
:102C600003068B3038F08D3008F4FCCE855182306D
:102C700008F42ACF812C912C20ECA22E2FE7B22E23
:102C80000FCF0E940E03609392057093930580937B
:102C90009405909395058AEB92E090939905809323
:102CA00098050E940E0300919205109193052091C2
:102CB000940530919505601B710B820B930B00916D
:102CC0008E0510918F052091900530919105061782
:102CD00017072807390708F057CA6EE576E0CE01D6
:102CE00007960E94D00664E676E0CE0101960E9427
:102CF000D006AE01495F5F4FBE016F5F7F4FCE01CF
:102D00000D960E94E007CE010D960E949604CE011A
:102D10000D960E946005CE0101960E946005CE01CD
:102D200007960E946005ADCF87EF95E00E94600591
:102D300080915606909157060E944F1A88E596E0BA
:102D40000E9460058EE596E00E94600584E696E0AC
:102D50000E9460058AE696E00E94600580E796E0A2
:102D60000E94600586E796E00C9460051F93FC01C5
:102D700099278827BC01E89411911032E9F31930A2
:102D800010F01E30C8F31B3251F01D3249F4689424
:102D900006C00E94F716610F711D811D911D1191D2
:102DA00010531A30B0F33EF490958095709561956C
:102DB0007F4F8F4F9F4F1F910895BB274A3031F4AB
:102DC000992322F4BDE2909581959F4F0C942F1783
:102DD000BB272A3051F4992342F4BDE290958095A7
:102DE000709561957F4F8F4F9F4F0C940D17592F02
:102DF000482F372F262F660F771F881F991F660FC2
:102E0000771F881F991F620F731F841F951F660FFE
:102E1000771F881F991F0895BB27FA01A62F6217F5
:102E2000710581059105330B30FB66F0AA27660F0B
:102E3000771F881F991FAA1FA21710F0A21B639566
:102E40003850A9F7A05DAA3308F0A95DA19336F721
:102E5000B111B1931082CA010C944817BB27FB0132
:102E60005527AA27880F991FAA1FA41710F0A41B83
:102E700083955051B9F7A05DAA3308F0A95DA193DD
:102E8000009779F7B111B1931192CB010C944817C7
:102E9000DC01FC01672F71917723E1F7329704C0C1
:102EA0007C916D9370836291AE17BF07C8F308954C
:102EB000E89409C097FB3EF49095809570956195D4
:102EC0007F4F8F4F9F4F9923A9F0F92F96E9BB278A
:102ED0009395F695879577956795B795F111F8CF06
:102EE000FAF4BB0F11F460FF1BC06F5F7F4F8F4F71
:102EF0009F4F16C0882311F096E911C0772321F067
:102F00009EE8872F762F05C0662371F096E8862FFE
:102F100070E060E02AF09A95660F771F881FDAF755
:102F2000880F9695879597F90895990F0008550F82
:102F3000AA0BE0E8FEEF16161706E807F907C0F03F
:102F400012161306E407F50798F0621B730B840B47
:102F5000950B39F40A2661F0232B242B252B21F421
:102F600008950A2609F4A140A6958FEF811D811DC1
:102F700008950E94CC170C943D180E942F1838F029
:102F80000E94361820F0952311F00C9426180C940A
:102F90002C1811240C9471180E944E1870F3959FF0
:102FA000C1F3950F50E0551F629FF001729FBB2740
:102FB000F00DB11D639FAA27F00DB11DAA1F649FDC
:102FC0006627B00DA11D661F829F2227B00DA11D8F
:102FD000621F739FB00DA11D621F839FA00D611D15
:102FE000221F749F3327A00D611D231F849F600D36
:102FF000211D822F762F6A2F11249F5750409AF05F
:10300000F1F088234AF0EE0FFF1FBB1F661F771FEA
:10301000881F91505040A9F79E3F510580F00C94B5
:1030200026180C9471185F3FE4F3983ED4F386950C
:1030300077956795B795F795E7959F5FC1F7FE2B55
:10304000880F911D9695879597F9089597F99F6731
:1030500080E870E060E008959FEF80EC0895002420
:103060000A941616170618060906089500240A94ED
:1030700012161306140605060895092E0394000C73
:1030800011F4882352F0BB0F40F4BF2B11F460FF02
:1030900004C06F5F7F4F8F4F9F4F089557FD90582B
:1030A000440F551F59F05F3F71F04795880F97FB0C
:1030B000991F61F09F3F79F08795089512161306C6
:1030C0001406551FF2CF4695F1DF08C016161706F5
:1030D0001806991FF1CF869571056105089408952A
:1030E000E894BB2766277727CB0197F90895052E2B
:1030F00097FB1EF400940E948E1857FD07D00E9483
:10310000CD1807FC03D04EF40C948E1850954095C2
:10311000309521953F4F4F4F5F4F08959095809583
:10312000709561957F4F8F4F9F4F08952F923F92DB
:103130004F925F926F927F928F929F92AF92BF92C7
:10314000CF92DF92EF92FF920F931F93CF93DF9373
:10315000CDB7DEB7CA1BDB0B0FB6F894DEBF0FBED0
:10316000CDBF09942A88398848885F846E847D841D
:103170008C849B84AA84B984C884DF80EE80FD801F
:103180000C811B81AA81B981CE0FD11D0FB6F89495
:10319000DEBF0FBECDBFED010895A1E21A2EAA1B1E
:1031A000BB1BFD010DC0AA1FBB1FEE1FFF1FA217F7
:1031B000B307E407F50720F0A21BB30BE40BF50BF4
:1031C000661F771F881F991F1A9469F7609570957D
:1031D000809590959B01AC01BD01CF010895A29F00
:1031E000B001B39FC001A39F700D811D1124911DDB
:1031F000B29F700D811D1124911D08955058BB2759
:10320000AA270E9416190C943D180E942F1838F016
:103210000E94361820F039F49F3F19F426F40C94DC
:103220002C180EF4E095E7FB0C942618E92F0E9469
:103230004E1858F3BA17620773078407950720F0F2
:1032400079F4A6F50C9470180EF4E0950B2EBA2FB5
:10325000A02D0B01B90190010C01CA01A00111249C
:10326000FF27591B99F0593F50F4503E68F11A1648
:10327000F040A22F232F342F4427585FF3CF4695D9
:1032800037952795A795F0405395C9F77EF41F16FB
:10329000BA0B620B730B840BBAF09150A1F0FF0FC5
:1032A000BB1F661F771F881FC2F70EC0BA0F621FB1
:1032B000731F841F48F4879577956795B795F795A1
:1032C0009E3F08F0B0CF9395880F08F09927EE0F36
:1032D0009795879508950E9472196894B1110C947E
:1032E000711808950E94561888F09F5798F0B92FCA
:1032F0009927B751B0F0E1F0660F771F881F991F2B
:103300001AF0BA95C9F714C0B13091F00E94701844
:10331000B1E008950C947018672F782F8827B85F54
:1033200039F0B93FCCF3869577956795B395D9F782
:103330003EF490958095709561957F4F8F4F9F4F8C
:1033400008950E949517880B990B08950E94EF1815
:10335000B7FF0895821B930B0895EE0FFF1F059092
:10336000F491E02D09940F931F93CF93DF93823054
:10337000910510F482E090E0E0917E06F0917F06E6
:1033800030E020E0B0E0A0E0309799F4211531055D
:1033900009F44AC0281B390B24303105D8F58A813D
:1033A0009B816115710589F1FB0193838283FE0185
:1033B00011C0408151810281138148175907E0F003
:1033C0004817590799F4109761F012960C931297C9
:1033D00013961C933296CF01DF91CF911F910F91DD
:1033E000089500937E0610937F06F4CF21153105D2
:1033F00051F04217530738F0A901DB019A01BD01D2
:10340000DF01F801C1CFEF01F9CF90937F068093E0
:103410007E06CDCFFE01E20FF31F819391932250E0
:10342000310939832883D7CF20917C0630917D06DE
:10343000232B41F4209126013091270130937D0602
:1034400020937C062091240130912501211531051E
:1034500041F42DB73EB74091280150912901241B1A
:10346000350BE0917C06F0917D06E217F307A0F49E
:103470002E1B3F0B2817390778F0AC014E5F5F4FCA
:103480002417350748F04E0F5F1F50937D06409379
:103490007C06819391939FCFF0E0E0E09CCFCF93A7
:1034A000DF930097E9F0FC01329713821282A0911A
:1034B0007E06B0917F06ED0130E020E01097A1F488
:1034C00020813181820F931F20917C0630917D06EF
:1034D0002817390709F061C0F0937D06E0937C0658
:1034E000DF91CF910895EA01CE17DF07E8F54A8111
:1034F0005B819E0141155105B1F7E901FB83EA8328
:1035000049915991C40FD51FEC17FD0761F48081D3
:1035100091810296840F951FE901998388838281A6
:1035200093819B838A83F0E0E0E012968D919C91D9
:1035300013970097B9F52D913C911197CD01029603
:10354000820F931F20917C0630917D062817390742
:1035500039F6309751F510927F0610927E06B0939F
:103560007D06A0937C06BCCFD383C283408151816A
:10357000840F951FC817D90761F44E5F5F4F88818C
:103580009981480F591F518340838A819B8193837E
:1035900082832115310509F0B0CFF0937F06E093C7
:1035A0007E069ECFFD01DC01C0CF13821282D7CFF1
:1035B000B0E0A0E0EEEDFAE10C9498188C010097D1
:1035C00051F4CB010E94B3198C01C801CDB7DEB70D
:1035D000E0E10C94B418FC01E60FF71F9C012250A7
:1035E0003109E217F30708F49DC0D901CD91DC91B0
:1035F0001197C617D70798F0C530D10530F3CE0123
:1036000004978617970708F3C61BD70B2297C19319
:10361000D1936D937C93CF010E944F1AD6CF5B015B
:10362000AC1ABD0A4C018C0E9D1EA0917E06B09175
:103630007F06512C412CF12CE12C109731F5809113
:103640007C0690917D068815990509F05CC04616A8
:10365000570608F058C080912401909125010097E9
:1036600041F48DB79EB74091280150912901841BE8
:10367000950BE817F90708F055C0F0937D06E09325
:103680007C06F90171836083A0CF8D919C91119785
:1036900012966C90129713967C901397A815B90503
:1036A00059F56C0142E0C40ED11CCA14DB0420F1B0
:1036B000AC014A195B09DA011296159780F0628213
:1036C000738251834083D9016D937C93E114F1049B
:1036D00071F0D7011396FC93EE93129776CF229652
:1036E0008C0F9D1FF90191838083F301EFCFF0933D
:1036F0007F06E0937E0669CF4816590608F42C0130
:103700007D01D3019ACFCB010E94B3197C010097B0
:1037100049F0AE01B8010E949D1BC8010E944F1ADA
:10372000870153CF10E000E050CF911108958154EC
:103730008A5108F4805E855A0895FB01DC0102C0BD
:1037400001900D9241505040D8F70895FB01DC01E3
:103750008D91019080190110D9F3990B0895FB0107
:10376000DC0101900D920020E1F7089510E0C2E61F
:10377000D0E004C0FE010E94AD192196C336D107E6
:06378000C9F7F894FFCF29
:103786000300050006000700080009000A000B00F8
:103796000E000F0010001100120013001400150097
:1037A6000200040000008006800000003200640071
:1037B6009600C800FA002C01000000007601D8002F
:1037C6000501C6013601140128010D0A004B6F746C
:1037D60075206B6F6D75742100696B696E63692066
:1037E600706172616D65747265796520276927203D
:1037F6007961646120276F2720676972696E697A2B
:1038060021005B48005B324A003C3C006169006471
:103816006F003E3E0050574D2000204F4E00204F77
:10382600464600474F4D494F20303120474F4D55B2
:103836004C552053495354454D204B4F4D55544CF0
:1038460041524920285553434F2030312050524F82
:10385600544F4B4F4C5529002D2D2D2D2D2D2D2DF3
:103866002D2D2D2D2D2D2D2D2D2D2D2D2D2D2D2D82
:103876002D2D2D2D2D2D2D2D2D2D2D2D2D2D2D2D72
:103886002D2D2D2D2D2D2D2D2D2D2D2D2D2D2D2D62
:103896002D2D2D0068656C702020202020202020F2
:1038A6003A20474F4D554C552053495354454D20CA
:1038B600444F5359414C4152494E49204C49535467
:1038C600454C45522E204F726E656B3A2068656CEA
:1038D6007000646F202020202020202020203A2005
:1038E60044494A4954414C204F5554505554204B55
:1038F6004F4D5554552E204F726E656B3A20646FAE
:103906002030302031202830302D00646F5F647500
:1039160072756D202020203A2044494A4954414C72
:10392600204F555450555420445552554D20424928
:103936004C474953490061696469202020202020B2
:1039460020203A20414E414C4F47205645204449BD
:10395600474954414C204749524953205645204433
:1039660049474954414C2043494B49532042494C0D
:10397600474953492E204F726E656B3A2061696440
:103986006920312F300070776D20202020202020E4
:1039960020203A2050574D204B4F4D5554552E2040
:1039A6004F726E656B3A2070776D20303020313063
:1039B6003030302031202830302D00636C732020C9
:1039C600202020202020203A205445524D494E41A7
:1039D6004C20454B52414E492054454D495A4C4581
:1039E600204F726E656B3A20636C73007265736567
:1039F60074202020202020203A2059415A494C4941
:103A06004D53414C205245534554204255544F4E38
:103A1600554E4120424153494C49522E204F726E19
:103A2600656B3A2072657365740076657220202096
:103A36002020202020203A205645525349594F4EE7
:103A46002076652049442042494C474953494E490E
:103A56002056455249522E204F726E656B3A20769B
:103A66006572006269702020202020202020203AE4
:103A76002036204641524B4C492042454550205362
:103A8600455349204F4C55535455524D414B2049AF
:103A960043494E204B554C4C414E494C49522E20E1
:103AA6004F726E656B3A2062697020312028312D85
:103AB6003629006265657020202020202020203ACB
:103AC600204B415254494E20484F5041524C4F5280
:103AD600554E55204B4F4E54524F4C20454445525F
:103AE6002E204F726E656B3A2062656570206F6E90
:103AF6002C2062656570206F666600646F20002D5D
:103B06002D2D30204F6B002D2D2D31204F6B006158
:103B16006964690070776D0062697000626565703E
:103B2600006F6E005665723A20002049643A200004
:103B3600646F5F647572756D0074696D65720031CE
:103B46002E302E3000554E4F0030303030303000A1
:103B56002C002E2E3A3A2041524455494E4F200011
:103B660020434F4E54524F4C2043415244202D2067
:103B7600474F4D494F203A3A2E2E00202020202034
:103B860020434152443A0049443A002020205645F9
:103B9600523A0020202020202020202020202020F3
:103BA600203230323020497374616E62756C202089
:103BB6002020202020202020202020202020004DF2
:103BC6005650005E4D5650200024007B0044493A72
:103BD60000543A00483A0044303A0044313A002C46
:0A3BE60053616E6979653A007D00B5
:00000001FF
